:020000040800F2
:10000000C009002001010008B33E0008593500086E
:10001000B13E0008550300089147000800000000A9
:10002000000000000000000000000000CB400008BD
:10003000A703000800000000B53E000811410008B9
:100040001B0100081B0100081B0100081B01000820
:100050001B0100081B0100081B0100081B01000810
:100060001B0100081B0100081B01000859030008C0
:100070001B0100081B01000865030008710300084C
:100080001B0100081B0100081B0100081B010008E0
:100090001B0100081B0100081B0100081B010008D0
:1000A0001B0100081B0100081B0100081B010008C0
:1000B000AD4100081B0100081B0100081B010008DE
:1000C0001B0100081B0100081B0100081B010008A0
:1000D0001B010008C5460008D14600081B010008A6
:1000E000A90300081B0100081B010008DFF80CD061
:1000F00000F06CF800480047514D0008C00900208E
:100100000648804706480047FEE7FEE7FEE7FEE7B1
:10011000FEE7FEE7FEE7FEE7FEE7FEE7AB4100088D
:10012000ED000008202A04DB203A21FA02F0002129
:10013000704721FA02F3D040C2F1200291400843F7
:1001400019467047D2B201E000F8012B491EFBD2DC
:1001500070470022F6E710B513460A4604461946D2
:10016000FFF7F0FF204610BD2DE9F05F05460020A7
:1001700092469B4688460646814640241BE0284618
:10018000414647462246FFF7CDFF53465A46C01A1E
:10019000914110D311461846224600F029F82D1A35
:1001A00067EB01084F4622460120002100F020F8AD
:1001B00017EB00094E41201EA4F10104DFDC484684
:1001C00031462A464346BDE8F09F0000064C074DE5
:1001D00006E0E06840F0010394E807009847103417
:1001E000AC42F6D3FFF786FF8C4E0008AC4E0008F9
:1001F000202A04DB203A00FA02F1002070479140E7
:10020000C2F1200320FA03F3194390407047000025
:1002100070B5044600688168C943C90717D1816871
:1002200021F00101816001F04FFA05460AE000BFAC
:1002300001F04AFA401B022804D920688068C043B4
:10024000C00706D020688068C043C007F0D00020F7
:1002500070BDA06A40F01000A062E06A40F00100AA
:10026000E062012070BD10B50146406A826A12F05A
:10027000500F05D0006A026BBDE8104008461047D9
:10028000816A41F40071816201688968C1F3424169
:1002900007290CD1017B51B9816A21F480718162F7
:1002A000816AC90403D4816A41F00101816200F0CE
:1002B000A7FD10BD10B5406A816A41F0400181621E
:1002C000C16A41F00401C16200F09CFD10BD10B58F
:1002D000406A00F096FD10BDF8B500260446009671
:1002E00000688168C943C9072DD0816841F00101C8
:1002F0008160164816490068B0FBF1F000E0401E2E
:1003000000900028FBD101F0DFF9054616E000BFA0
:1003100001F0DAF9401B022810D920688068C04338
:10032000C0070BD0A06A40F01000A062E06A40F065
:100330000100E06284F824600120F8BD2068806834
:10034000C043C007E4D10020F8BD0000CC0000206D
:1003500040420F00FEE70000014800F021BF00000E
:1003600010030020014800F01BBF00002C050020F6
:10037000014800F015BF0000E804002030B590F8F7
:1003800040500124AC40C56B6C60046863604368F6
:10039000102B036803D099600068C26030BD9A607A
:1003A0000068C16030BD70474FF4006001F07EB856
:1003B00072B6FEE72DE9F0412A4890F84100202866
:1003C0004ED1294C22466079C0F10100C1B2012012
:1003D0006171A071D37804F15000012901D081B17D
:1003E00036E0E17C8170217DC1701F4903712831A5
:1003F0000A7842714A7882718978C17155214170B9
:1004000026E0E26A0A21B2FBF1F58570B2FBF1F554
:1004100001FB1525C570144D6778683507712E7876
:1004200046716E788671AD78C5714FF0560C80F8C4
:1004300001C0B2FBF1FC0C48583080F802C0B2FB9E
:10044000F1FC01FB1C21C170077143718671C571FC
:10045000054908225031034803F040F80020A071FC
:10046000BDE8F081580400200000002010B50A4CBF
:1004700001224021204601F022F94FF6FF730822A5
:100480000649074802F0DDFF20460022BDE8104083
:10049000402101F014B9000000180140580000206C
:1004A000A00400202DE9FE4FF84C0025207B0728F2
:1004B00008D804F16001095C03F014FE207B401CA5
:1004C000207303E02573E07803F09CFADFF8C08323
:1004D0000421404601F0E6F80126DFF8B0A3002829
:1004E000608C0AF1680A03D0C0B3401E608437E014
:1004F0000A2801D2401CF9E7607A01282CD1606BF0
:10050000C0F101006063207A401CC0B22072042850
:1005100001D9267220E003281ED19AF800700A2023
:10052000B7FBF0F200FB127262739AF80120B2FB83
:10053000F0F300FB1323A3739AF80210B2FBF0F25E
:10054000B1FBF0F300FB1313E373B7FBF0F3B1FB64
:10055000F0F023746274A074657201E0FFE76672C4
:100560000221404601F09EF80028A08C03D0C0B1C3
:10057000401EA08416E00A2801D2401CF9E7A07AA8
:10058000012809D1A06BC0F10100A0630128E07827
:1005900004D000F0F000E070A57203E040F00F001E
:1005A000F9E7A672DFF8E4B264200BF1480BABF177
:1005B0002009BBF9021091FBF0F0282870D0607878
:1005C000072609F118084FF47A7748B9CDF800806A
:1005D000012380222021AF48CDE9016701F066FAAE
:1005E000E08C142801D2401C2EE2E07A01287CD154
:1005F000A6484FF0640B4830B0F9021091FBFBF0B5
:100600001C286DD1207A012804D0032802D00428A8
:1006100049D065E0E079082862D2DFE800F0040CF8
:1006200061232B61333B207C022802D2401C2074C2
:1006300056E0257454E0207C022808D2607B0A280A
:100640000ED2401CC0B260730A2809D048E007D11E
:10065000607B042804D2401CC0B2607304283FD1E0
:1006600065733DE0607C052802D2401C607437E071
:10067000657435E0A07B092802D2401CA0732FE0EE
:10068000A5732DE0A07C052802D2401CA07427E0B1
:10069000A57425E0E07B092803D2401CE0731FE02D
:1006A000CFE1E5731CE06078401CC0B260700F2899
:1006B00000D9657098F8061001F0F002617801F039
:1006C0000F031A4388F806204FF00103CDF800808D
:1006D00089B1C02220216F48CDE9016701F0E6F918
:1006E0006A484830B0F9021000E092E191FBFBF05B
:1006F0000B2802D062E08022ECE7207A012804D0A7
:10070000032802D0042844D058E0E07909210522CA
:10071000082853D2DFE800F0040B521D25522D3576
:10072000207C08B1401E00E00220207446E0207CBE
:10073000022806D2607B10B1A0F1010007E06173CE
:100740003CE03BD1607B0028F6D14FF003006073A2
:1007500034E0607C18B1A0F1010060742EE0627496
:100760002CE0A07B18B1A0F10100A07326E0A173DA
:1007700024E0A07C18B1A0F10100A0741EE0A274D6
:100780001CE0E07B18B1A0F10100E07316E0E1731A
:1007900014E0607830B1A0F1010010F0FF0060704B
:1007A00016D001E00F2060700123C022CDF8008038
:1007B00020213848CDE9016701F078F93348483005
:1007C000B0F90210642091FBF0F005280BD041E055
:1007D00098F80610012301F0F00188F80610802235
:1007E000CDF80080E4E7207A012804D0032802D065
:1007F000042811D02EE0E079012806D0042804D086
:10080000072806D200F1010001E000F10200E071CA
:1008100020E01FD1E5711DE0E06AB0F5876F02D9D5
:1008200040F26B3000E0401CE062A0F266308208CB
:10083000206388F80120102242EA801088F8020024
:10084000CDF800800123C02220211248CDE90167A4
:1008500001F02CF9DFF834B064200BF1480BBBF940
:10086000021091FBF0F017283AD1207A012804D029
:10087000032802D0042814D032E0E07903280BD0FA
:10088000062809D058B1401E07E0000000000020F3
:1008900000100140A8030020801EE07120E0E671F6
:1008A0001EE0E06A40F26B31884202D24FF487606A
:1008B00000E0401EE062A0F266308208206388F803
:1008C0000120102242EA801088F80200CDF8008052
:1008D0000123C02220216D48CDE9016701F0E6F82F
:1008E000BBF902104FF0640891FBF8F0112807D112
:1008F0002078C0F10100C0B22070012801D018B3E7
:1009000078E0207A012875D199F800100A20B1FB0F
:10091000F0F300FB1313637399F80130B1FBF0F1AE
:10092000B3FBF0F600FB1636A67399F80220B2FB73
:10093000F0F600FB1626E6732174B3FBF0F1B2FB70
:10094000F0F06174A07455E0207A012802D00328E9
:100950001ED04FE0207C617B00EB800001EB40016A
:1009600089F80010617C4B4801EB8102A17B01EB0F
:10097000420189F80110A17C01EB8102E17B01EBCE
:10098000420189F802100022414901F089FF31E05B
:10099000207C00EB8001607B00EB41028AF80020A4
:1009A000617CA37B01EB810103EB41038AF80130F9
:1009B000A17CE67B01EB8101374806EB41018AF817
:1009C000021002704370817008218DE883000123BA
:1009D0000022A021314801F069F810B930A003F0DD
:1009E000D9FE142000F0ECFC2949002240312948AE
:1009F00001F07EFEBBF9021091FBF8F048B9E06B04
:100A0000C0F10100E0630128E07817D000F00F008A
:100A1000E070E5722B4C01224021204600F04FFE91
:100A20001B494FF6FF7308223031274802F009FDB9
:100A300000224021204600F042FE08E040F0F00095
:100A4000E6E7E08C10B1401EE08400E0E67299F821
:100A500000209AF80030484651469A4213D1427815
:100A60004B789A420FD199F802009AF80210401A76
:100A7000032808DC002806D403B02021BDE8F04F8D
:100A8000104800F014BEBDE8FE8F0000A80300204F
:100A900028000020FC030020E00000205403002078
:100AA0000D0A20454550524F4D20323443303220FC
:100AB00057726974652054657374204F4B200D0A7A
:100AC0000000000000180140A00400202DE9FF41B3
:100AD00000228949894801F0DDFC87498848203196
:100AE000854DB1F902300268283D13440360B1F925
:100AF0000440426822444260B1F9061084680C4404
:100B00008460A978491CC9B2A97014297ED3142124
:100B1000B3FBF1F3B2FBF1F2B4FBF1F1C0E9003247
:100B200080468160287A0A24012808D0032824D02E
:100B30004FF47A7302282CD0042845D0D1E02878CD
:100B400010B1012819D0CCE06B488178B1FBF4F2E8
:100B5000B1FBF4F604FB121741780078B1FBF4F214
:100B600004FB1212B1FBF4F3B0FBF4F104FB11012E
:100B7000B0FBF4F08DE8D400B0E0E87BA97CAA7B60
:100B8000CDE90024CDE902106B7C0A22697B287C28
:100B9000A5E0E87CB0FBF4F1B0FBF4F604FB110730
:100BA000287D0094B0FBF4F104FB1102B0FBF4F1DA
:100BB000B1FBF4FC04FB1C11B0FBF3F00DF1040CD1
:100BC0000A238CE8D0008AE068786427E96A0A285A
:100BD00046D2B1FBF3F203FB1212B2FBF7F607FBAE
:100BE0001622B2FBF4F699421CD204FB1626B1FB86
:100BF000F3F203FB1212B2FBF7FC07FB1C22B1FB62
:100C0000F3FCB2FBF4F203FB1C1100E071E0B1FB5A
:100C1000F7F10DF1040CC9B200948CE846000A23E8
:100C20001A461BE004FB1622B1FBF3F603FB161673
:100C3000B6FBF7FC07FB1C66B6FBF4F6B1FBF3F45E
:100C400003FB1414B1FBF3F1B4FBF7F4E4B2C9B243
:100C5000CDE90262CDE900140A231A460A213EE0DA
:100C6000B1FBF3F203FB1212B2FBF7F607FB1622FD
:100C7000B2FBF4F604FB1626B1FBF3F203FB1212EF
:100C8000B2FBF7FC07FB1C22B2FBF4F2B1FBF3FC56
:100C9000994210D203FB1C11B1FBF7F1CBB2B0FBB0
:100CA000F4F104FB1101B0FBF4F003960094CDE9DC
:100CB00001320A2312E003FB1C1CB1FBF3F1CBB29F
:100CC000B0FBF4F1BCFBF7F704FB1101B0FBF4F04F
:100CD000FFB2CDE90037CDE902260A230A2203F04C
:100CE000BBFF0021C8F80810C8F80410C8F80010AD
:100CF000A970BDE8FF81000028000020FC0300204F
:100D0000D4000020F8B50024009490F82420254653
:100D1000012A12D0012280F824204A681F23072AC2
:100D20000DD20668776B521E02EB820293409F43FE
:100D30000B6893401F43776319E00220F8BD0668F3
:100D40000D2A0AD2376BD21F02EB820293409F43D7
:100D50000B6893401F43376309E0F76A0D3A02EBD3
:100D6000820293409F430B6893401F43F7620A68D7
:100D7000072306680A2A0AD3F7680A3A02EB4202F6
:100D800093409F438B6893401F43F76008E03769A7
:100D900002EB420293409F438B6893401F433761AD
:100DA0000A68102A01D0112A20D1124B02689A42F7
:100DB00017D193681B0219D4936843F4000393601E
:100DC0000968102912D10C490C4A0968B1FBF2F1EB
:100DD00001EB8101490000E0491E00910029FBD18F
:100DE00004E0816A41F020018162012480F82450EE
:100DF0002046F8BD00240140CC00002040420F00F6
:100E000070477047704700002DE9F0414FF0000730
:100E100004003D467ED0A06A002628B9E66284F828
:100E20002460204600F07EF82046FFF7F1F9A16A21
:100E300001F01001014304D0A06A40F01000A0624C
:100E400068E0A16A21F4885141F00201A162626860
:100E5000E169237B0A4347EA43010A43A1684FF44F
:100E60008077B94208D0012906D0002194F814C037
:100E7000BCF1010F02D00AE03946F7E7F3B1A36AEB
:100E800043F02003A362E36A43F00103E3622368B3
:100E9000D3F804C02CF4694C4CEA010CC3F804C02C
:100EA00023689968DFF870C001EA0C01114399606A
:100EB000A168B9420BD0012909D00CE0DFF85CC071
:100EC000A3690CEB43330B4343F40061DFE7218A52
:100ED0000D05A5F580152168CB6A23F470032B431B
:100EE000CB62216889680E4B1940914208D1E662B5
:100EF000A16A21F0020141F00101A162BDE8F08187
:100F0000A06A20F0020040F01000A062E06A40F009
:100F10000100E0620120F1E7FDF7E1FF00E0FFFFE3
:100F2000FE0E1FFF70B586B00025064600950195A0
:100F30000295039500681A4988422ED1194988699B
:100F400040F400708861886900F40070049088693A
:100F500040F0100088618869694600F01000049034
:100F600031200090032001900F4800F0ABFA104CA4
:100F70000E48C4E900058020C4E902504000206109
:100F8000800060612020C4E90605204600F0B2F927
:100F900008B1FFF70DFA3462666206B070BD00005A
:100FA00000240140001002400010014008000240EF
:100FB000100300202DE9F047894604463B490068AC
:100FC0003B4F0E1D9046884201D0B84207D1306891
:100FD00010F4702F03D001252846BDE8F08794F85F
:100FE000240001280CD0012084F824002046FFF7BB
:100FF00073F905004FF0000004D084F82400EBE7FB
:101000000220EAE7A16A40F60162914341F480714F
:10101000A1622168B94218D1326812F4702F14D03D
:10102000A16A41F48011A1623168490505D5A16A20
:1010300021F4005141F48051A162A16AC9040AD58A
:10104000E16A21F00601E16206E0A26A22F4801260
:10105000A2624968E9E7E06284F82400216A154841
:101060008862216A1448C862216A144808632168AA
:101070006FF0020008602068816841F4807181602F
:10108000216843464A464C31206A00F061F92068E5
:101090008168C1F342410729816803D041F480117E
:1010A000816099E741F4A001FAE7000000240140C3
:1010B0000028014067020008CF020008B5020008BE
:1010C00010B590F821100022022905D00421816377
:1010D00080F82020012010BD01680B6823F00E036A
:1010E0000B6001680B6823F001030B6090F840303F
:1010F000C46B012101FA03F3636080F8211080F8CA
:101100002020104610BD000010B590F821100024DA
:10111000022903D00421816301243DE001680A68AB
:1011200022F00E020A6001680A6822F001020A60D9
:101130001A4A0168914201D1012121E0174A143273
:10114000914201D110211BE0144A2832914201D171
:10115000891515E0114A3C32914201D189140FE002
:101160000E4A5032914202D14FF4803108E00B4ACE
:101170006432914202D14FF4801101E04FF080714E
:10118000064A083A5160012180F82110002180F8B8
:101190002010416B01B18847204610BD0800024075
:1011A0002DE9F05FC16B0C6801680B68D0F840C096
:1011B000042202FA0CF2494DDFF824A1494E4A4FAD
:1011C000DFF828B1DFF828E122422CD05A072AD5CF
:1011D0000A68920603D40A6822F004020A600168D1
:1011E000A94201D1042219E0514501D1402215E064
:1011F000B14202D14FF4806210E0B94202D14FF403
:1012000080420BE0594502D14FF4802206E071453F
:1012100002D14FF4800201E04FF080622F4908397B
:101220004A60C16A3BE04FF0020808FA0CF818EA7D
:10123000040F4FF000094FF0010235D05FEA8378C8
:1012400032D50B689B0605D40B6823F00A030B60AC
:1012500080F821200168A94201D1022219E05145FC
:1012600001D1202215E0B14202D14FF4007210E00A
:10127000B94202D14FF400520BE0594502D14FF46C
:10128000003206E0714502D14FF4001201E04FF048
:101290000072124908394A6080F82090816A00295A
:1012A0001AD0BDE8F05F0847082505FA0CF525427D
:1012B00012D01B0710D50B6823F00E030B6090F8BB
:1012C0004010C36B02FA01F15960826380F821205B
:1012D00080F82090016BE2E7BDE8F09F0800024033
:1012E0001C0002403000024044000240580002400E
:1012F0006C00024030B528B308C8134914221944C1
:10130000B1FBF2F18900C163104981630221417789
:101310001A6843F6F0718A43D0E900142143D0E9FA
:1013200002452C43214304692143446921438469D4
:101330002143114319600021416301224277017763
:10134000084630BD012030BDF8FFFDBF000002405F
:1013500070B5044690F82000002501280CD001202B
:1013600084F8200094F821600020012E06D084F833
:1013700020000225284670BD022070BD022684F898
:101380002160A0632068066826F0010606602046FA
:10139000FEF7F4FFE06A00282068016802D041F0FF
:1013A0000E0106E021F0040101602068016841F0AF
:1013B0000A0101602068016841F001010160D9E77C
:1013C00070B5044600F080F90546601C02D0044860
:1013D0000078044400F078F9401BA042FAD370BDB5
:1013E000C0000020B0F5006F5BD12E4801690029D4
:1013F00057D12D4A012101611268002151624FF03D
:1014000080418068C862C82000BF00BF00BF00BF25
:1014100000BF00BF00BF00BF00BF00BF00BF00BFD4
:1014200000BF00BF00BF00BF00BF00BF00BF00BFC4
:1014300000BF00BF00BF00BF00BF00BF00BF00BFB4
:1014400000BF00BF00BF00BF00BF00BF00BF00BFA4
:1014500000BF00BF00BF00BF00BF00BF00BF00BF94
:1014600000BF00BF00BF00BF00BF00BF00BF00BF84
:1014700000BF00BF00BF00BF00BF00BF00BF00BF74
:1014800000BF00BF00BF00BF00BF00BF00BF00BF64
:1014900000BF00BF00BF00BF401EB5D2024801F030
:1014A00049BB70479C00002010040020044910B57F
:1014B0000A68024202D00860FFF794FF10BD0000E6
:1014C000140401402DE9F84FDFF8B8910024A9F188
:1014D000040B23460F2709F1040AABF1040EC9E0FF
:1014E0000125A5402A40AA427DD1674ED1F804C00B
:1014F000ACEB0608B44532D014DCBCF1030F3AD093
:1015000009DCBCF1000F2AD0BCF1010F1CD0BCF1EA
:10151000020F31D11DE0BCF1110F17D0BCF1120F39
:101520002AD119E0B8F5881F19D006DCB8F5803F3C
:1015300015D0B8F5801F1FD111E0B8F5001F0ED0EF
:10154000B8F5041F18D10AE0CB6815E0CB681B1D65
:1015500012E0CB6808330FE0CB680C330CE08B68EB
:101560002BB1012B4FF0080303D0456104E00423A5
:1015700002E0056100E00023FF2A01D8064601E0F1
:1015800000F104064FEA840501D9A5F12005D6F83B
:10159000008007FA05FC28EA0C0803FA05F548EA7A
:1015A0000508C6F800804D68ED0062D5374DAE697C
:1015B00046F00106AE61AD6924F0030605F00105B1
:1015C0000095334D06EB050CDCF80850A607360FE6
:1015D00007FA06F825EA0805DFF8B880404503D188
:1015E0004FF0000817E044E0DFF8AC80404502D13E
:1015F0004FF001080FE0DFF8A480404502D14FF022
:10160000020808E0DFF89880404502D14FF0030857
:1016100001E04FF0040808FA06F848EA0508CCF89B
:1016200008804D68D9F80060ED024D4601D516439B
:1016300000E096432E604D68DAF80060AD02554632
:1016400001D5164300E096432E604D68DBF800603C
:10165000AD035D4601D5164300E096432E604D680C
:10166000DEF80060ED03754601D5164300E09643B1
:101670002E60641C0D682A46E5407FF431AFBDE85A
:10168000F88F000008040140000011100010024013
:101690000000014000080140000C01400010014022
:1016A000001401408068084000D001207047C268E3
:1016B00021EA02030A4043EA0241016170470AB18C
:1016C000016170470904FBE701488068704700002A
:1016D000C000002070B5040025D094F83D0000251E
:1016E00020B984F83C50204600F078FA242084F891
:1016F0003D002068016821F0010101602068016857
:1017000041F4004101602068016821F4004101605A
:1017100000F0D6FC4D4A6168914201D84C4900E086
:101720004C49884201D2012070BD4B492368B0FB6F
:10173000F1F15E6826F03F060E435E6063689342F7
:1017400006D94FF4967359434FF47A73B1FBF3F112
:101750002368491C1E6A26F03F06314319626168FE
:10176000914210D84900401EB0FBF1F2521CC2F366
:101770000B02042A01D2042022E0B0FBF1F0401C4D
:10178000C0F30B001CE0A268F2B301EBC10303EB52
:101790000116431EB3FBF6F35B1C43F480431B05A9
:1017A00049D092B301EBC10202EB0111401EB0FB24
:1017B000F1F0401CC0F30B0040F4804040F40040C6
:1017C0002168CA694CF6FF739A431043C861D4E993
:1017D000071001432068026822F0C0021143016033
:1017E000D4E9030101432068826848F2FF339A4339
:1017F00011438160D4E9050108432168CA6822F0D9
:10180000FF021043C86001E00EE016E020680168A6
:1018100041F0010101602564202084F83D0025632A
:1018200084F83E50002070BD01EB4106431EB3FB1F
:10183000F6F35B1CB3E70120C2E701EB4101401E58
:10184000B0FBF1F0401CC0F30B00B7E7A08601002D
:1018500080841E0000093D0040420F002DE9FF4F2B
:1018600083B00025DDE910799A4693460446DDF8F9
:1018700048800095FFF728FF064694F83D00202891
:101880007CD11923012285492046009601F07AFF78
:101890000028F5D194F83C0001286FD0012084F88D
:1018A0003C0020680168C90703D1016841F00101CB
:1018B00001602068016821F400610160222084F841
:1018C0003D00402084F83E0025646762A4F82A9019
:1018D000608D20857248E062CDE9008653465A4605
:1018E0002046049901F050FE00287DD1208DDFF8BC
:1018F000B491202768B1012814D00228206801681B
:101900001ED041F4806101602068416980690090C7
:10191000B6E02068416981690091016841F4007175
:101920000160ADE02068016821F48061016072B659
:101930002068416981690091016841F400710AE001
:1019400041F40061016072B62068416981690091CB
:10195000016821F48061016062B691E0032868D8D3
:1019600001280CD0022843464FF000024946204689
:1019700000960FD001F006FFB0BB10E08BE03246BE
:101980004146204601F0A4FF70BB20680069616AEF
:1019900008706CE001F0F6FE30BB72B634E02068EF
:1019A000016821F48061016072B620680069616A93
:1019B0000870606A401C6062208D401E2085608D2A
:1019C000401E6085384846F2A8110068B0FBF1F06F
:1019D000C0EBC00000EB80000090401E009008D0DB
:1019E00020684069C04300E029E040070CD500981A
:1019F000F3E744F8305F6773A573206940F0200077
:101A0000206162B625731AE02068016841F4007114
:101A1000016020680069616A0870606A401C606249
:101A2000218D491E2185618D491E618562B621681F
:101A30001BE032464146204601F04AFF18B1012022
:101A400007B0BDE8F08F20680069616A0870606ABD
:101A5000401C6062218D491E2185618D491E618572
:101A600021684A69D24352070AD409690170606A41
:101A7000401C6062208D401E2085608D401E608568
:101A8000208D00287FF46AAF84F83D7084F83E50C2
:101A900084F83C50D4E70220D2E700000200100096
:101AA0000000FFFF04000100CC0000202DE9FF4FE3
:101AB00083B09A46DDE9119793460446DDF84080ED
:101AC000FFF702FE054694F83D0020287FD1192338
:101AD000012240492046009501F054FE002876D1AD
:101AE00094F83C00012872D0012084F83C00206862
:101AF0000168C90703D1016841F001010160206854
:101B0000016821F400610160212084F83D0040203B
:101B100084F83E0000262664C4F82480A4F82A90A5
:101B2000608D20852C48E062CDE9007553465A4609
:101B30002046049901F0A6FD70B930E02A463946E6
:101B4000204601F0FDFE58B1206C042804D1206825
:101B5000016841F400710160012007B0BDE8F08F19
:101B6000606A216800780861606A401C6062218DAB
:101B7000491E89B22185628D521E62852268536991
:101B8000DB435B070BD469B100781061606A401CCD
:101B90006062208D401E2085608D401E6085208DF6
:101BA0000028CBD12A463946204601F0BFFD002847
:101BB000CAD154F83D0B016841F400710160202046
:101BC00004F81E09E67766770020C6E7FFE70220E3
:101BD000C3E70000020010000000FFFF30B585B031
:101BE000002100910191029103911E4D03681E4C4A
:101BF000122103221D48AB4216D1A36943F008030A
:101C0000A361A369039203F008030493C023CDE901
:101C100000316946FFF756FCE06940F40010E061CE
:101C2000E06900F4001019E0114DAB4217D1A3692F
:101C300043F00803A361A369039203F0080304932C
:101C40004FF44063CDE900316946FFF73BFCE069A2
:101C500040F48000E061E06900F48000049005B089
:101C600030BD00000054004000100240000C014054
:101C70000058004002488168027811448160704732
:101C8000C0000020074810B5016841F01001016054
:101C9000032000F097F8042000F006F800F024F884
:101CA000002010BD0020024070B50D4D04464FF4D9
:101CB0007A712878B1FBF0F00A490968B1FBF0F0BD
:101CC00000F0A0FE48B9102C07D200222146501E79
:101CD00000F058F800206C6070BD012070BD00005D
:101CE000C0000020CC0000201D4808B5816941F0EB
:101CF00001018161816901F001010091C16941F037
:101D00008051C161C069002200F080500090042120
:101D10006FF00B0000F036F8002204216FF00A008B
:101D200000F030F8002204216FF0090000F02AF8DA
:101D300000220421501F00F025F800220421101F6A
:101D400000F020F804210022881F00F01BF805484D
:101D5000416821F0E06141F00071416008BD000080
:101D60000010024000000140002809DB00F01F02C3
:101D7000012191404009800000F1E020C0F80011ED
:101D800070470000F0B40E4B1B680C46C3F30223EF
:101D9000C3F10705042D00D90425191D072901D217
:101DA000002300E0DB1E012606FA05F1491E214052
:101DB00099409E40761E16403143F0BC02F0FABCBA
:101DC0000CED00E0064900F0070208684FF6FF033B
:101DD000184040EA0220034A1043086070470000A0
:101DE0000CED00E00000FA0501490120086270478F
:101DF00000000E4210B501460020234C012922D0DC
:101E0000022938D010291DD161682268D20119D564
:101E10001E48C1F38342C903805C0AD561681B4A2E
:101E2000C1F34041921E515C194AB2FBF1F14843A3
:101E300001E0184948436168490203D44000032186
:101E4000B0FBF1F010BD226AC2F30121012903D1D8
:101E5000920701D5C80310BD022905D1626A920715
:101E600002D549F6404010BD0329FCD12168890301
:101E7000F9D5094810BD00F033F96168C1F381312B
:101E8000491C4900DCE7000000100240644E0008D5
:101E9000001BB70000093D00366E01002DE9F84334
:101EA00005460078354CC00754D0E0690026C000D4
:101EB00008D4E06940F08050E061E069012600F05C
:101EC000805000902E480168C90512D401688046F0
:101ED00041F480710160FFF7F7FB074605E000BFA2
:101EE000FFF7F2FBC01B642823D8D8F80000C00518
:101EF000F6D5206A10F4407021D0A98801F4407111
:101F000081421CD0206A1F49012220F440700A60DF
:101F100000220A602062C00711D0FFF7D5FB0746F8
:101F200041F2883808E000BFFFF7CEFBC11B4145F6
:101F300002D90320BDE8F883206A8007F4D5206A1F
:101F4000696820F44070084320621EB1E06920F007
:101F50008050E0612878800705D56068A96820F482
:101F60004040084360602878C00605D56068E9688D
:101F700020F48000084360600020DBE7001002408E
:101F800000700040400442422DE9F0470F46050032
:101F900061D0434E306800F00700B84209D2306883
:101FA00020F0070038433060306800F00700B84286
:101FB00051D128683B4C810712D5400703D5606892
:101FC00040F4E06060602878000703D5606840F462
:101FD000605060606068A96820F0F00008436060AD
:101FE0002878C00728D06868012810D02168022806
:101FF00010D0890700292EDA616821F0030101431E
:102000006160FFF761FB804641F288390DE021688D
:102010008903EFE78901EDE7FFF756FBA0EB080125
:10202000494502D90320BDE8F0876068696800F07F
:102030000C00B0EB810FEFD1306800F00700B84220
:102040000BD9306820F0070038433060306800F06A
:102050000700B84201D00120E5E72878400705D500
:102060006068E96820F4E060084360602878000751
:1020700006D56068296920F4605040EAC1006060BC
:1020800000F03EF86168084AC1F30311515CC84092
:102090000649086006480068FFF706FE0020C2E710
:1020A0000020024000100240744E0008CC000020C6
:1020B000C40000200148006870470000CC000020E8
:1020C0000448054900684968044AC1F30221515C8B
:1020D000C8407047CC00002000100240844E000829
:1020E0000448054900684968044AC1F3C221515CAB
:1020F000C8407047CC00002000100240844E000809
:102100000F4A516801F00C00042803D0082803D0BE
:102110000C4870470C4870470C48C1F38343C9030F
:10212000C05C0AD55168094AC1F34041921E515C16
:10213000054A5043B0FBF1F07047054948437047EA
:102140000010024000127A00001BB700524E000837
:1021500000093D002DE9F84F040070D02078C04DF3
:10216000C00749D06868C0F38100012807D06868BB
:10217000C0F38100022809D16868C00306D5286829
:10218000800339D560680028E7D035E06068B0F595
:10219000803F0BD010B1B0F5A02F11D0286820F4EB
:1021A00080302860286820F4802002E0286840F40D
:1021B00080302860606890B1FFF786FA06460AE032
:1021C000286840F480202860F0E700BFFFF77CFA21
:1021D000801B642873D828688003F7D50CE0FFF7CC
:1021E00073FA064605E000BFFFF76EFA801B64280D
:1021F000F0D828688003F7D420789A4E80074FF0F3
:1022000001094FF0000839D5686810F00C0F07D0AD
:102210006868C0F38100022809D16868C00306D449
:102220002868800714D52069012808D110E02069AA
:10223000B0B1C6F80090FFF747FA074605E00AE19B
:10224000FFF742FAC01B0228C4D828688007F7D5D8
:102250002868616920F0F80040EAC10028600DE0BC
:10226000C6F80080FFF730FA074604E0FFF72CFAC3
:10227000C01B022823D828688007F7D420780007DD
:102280002CD57948A169D9B1C0F80090FFF71CFAA4
:10229000074604E0FFF718FAC01B02280FD8686A47
:1022A0008007F7D571484FF4FA510068B0FBF1F0A0
:1022B000009000BF0098411E0091FAD20EE080E02D
:1022C000C0F80080FFF700FA074604E0FFF7FCF9CA
:1022D000C01B022875D8686A8007F7D420784007A9
:1022E00060D5E8690027C00008D4E86940F0805054
:1022F000E861E869012700F0805000905C480168BF
:10230000C90513D40168834641F480710160FFF769
:10231000DBF9824606E000BFFFF7D6F9A0EB0A0022
:1023200064284ED8DBF80000C005F5D5E068012828
:102330000AD008B1052813D0286A20F001002862CD
:10234000286A20F0040002E0286A40F001002862B8
:10235000E06841F2883B98B1FFF7B6F982460BE09E
:10236000286A40F004002862EEE700BFFFF7ACF9EE
:10237000A0EB0A0159455AD8286A8007F6D50CE027
:10238000FFF7A2F9824605E0FFF79EF9A0EB0A01EC
:1023900059454CD8286A8007F6D41FB1E86920F067
:1023A0008050E861E06988B36968C1F3810102295E
:1023B00044D00228C6F8608004D0FFF785F90446AF
:1023C00038E034E0FFF780F9074604E0FFF77CF9D6
:1023D000C01B02282BD828688001F7D4206AB0F5EA
:1023E000803F05D16868A16820F400300843686028
:1023F000D4E908010843696821F47411084368604E
:10240000C6F86090FFF760F9044606E025E000BFDB
:10241000FFF75AF9001B022809D828688001F7D570
:102420001BE000BFFFF750F9001B022802D9032070
:10243000BDE8F88F28688001F4D40EE00128F7D0B9
:102440006868226A00F48031914204D1616A00F424
:102450007010884201D00120EAE70020E8E7000080
:10246000001002400000424280044242CC000020A2
:1024700000700040024850F8210080B27047000010
:10248000006C0040024800EB810091B2016070478F
:10249000006C00402DE9F04791460C465FEA0008C9
:1024A0004AD084B3D8F800004068400744D440467E
:1024B00001F0A8FD4FF461620546B0FBF2F1B0FBFC
:1024C000F2F302FB13503C23B0FBF3F0B5FBF2F642
:1024D000607002FB1650B0FBF3F203FB1200A07019
:1024E000182931D31820B1FBF0F7B1FBF0F200FB53
:1024F00012102070404601F07EFD411C04D0A8421D
:1025000002D9461B02E017E04FF0FF36A7EB071099
:1025100000EB4000C0EB001005EBC015294640461B
:1025200001F0BFFD40B9701C01D0711900E03146C7
:10253000404601F0A2FD10B10120BDE8F087394608
:10254000404601F0CCFC00E02170B9F1000F0BD047
:10255000207801F0B9FC2070607801F0B5FC607063
:10256000A07801F0B1FCA0700020E6E770B504008F
:1025700003D0607C002610B105E0012070BD2674F8
:10258000204600F03DF802206074204600F0DEF99D
:10259000042550BB204601F0F9FC30BB206841689F
:1025A00021F007014160A06820B11448016821F0C2
:1025B000010101601148001F0168A26821F46071E7
:1025C000114301606068411C04D10120FFF712FC37
:1025D00058B1401E2268C0F303419160216880B267
:1025E000C860204601F0ECFC08B16574C5E7E673ED
:1025F00001206073A0736074002070BD306C0040D7
:1026000008B50068084988420DD1FFF7EDFB07487F
:10261000C16941F00061C161C069054900F0006015
:1026200000900120086008BD002800400010024012
:102630003C0442422DE9F8434FF0000617460D4690
:10264000040000960FD075B1207C01280ED04FF009
:10265000010984F810900220607400226946204627
:10266000FFF718FF20B10120BDE8F8830220FBE747
:102670009DF800004FF4616148439DF80110C1EBE3
:10268000011100EB81009DF8021000EB0108287891
:10269000E7B101F010FC4FF4616100FB01F76878CD
:1026A00001F009FCC0EB001007EB8007A87801F0EF
:1026B00002FC3918414501D20C480144204601F082
:1026C000DCFC70B1042060742674CCE74FF46161C7
:1026D00048436978C1EB011100EB8100A9780144FE
:1026E000E8E784F8119026740020BDE780510100CE
:1026F0002DE9F8434FF0000617460D4604000096FA
:102700000FD075B1207C01280ED04FF0010984F85C
:10271000109002206074002269462046FFF7BAFE3E
:1027200020B10120BDE8F8830220FBE79DF80000FE
:102730004FF4616148439DF80110C1EB011100EBBA
:1027400081009DF8021000EB01082878E7B101F044
:10275000B2FB4FF4616100FB01F7687801F0ABFB5D
:10276000C0EB001007EB8007A87801F0A4FB391834
:10277000414501D217480144204601F07EFC70B16A
:10278000042060742674CCE74FF461614843697893
:10279000C1EB011100EB8100A9780144E8E7206852
:1027A000416821F0020141602068016841F00201A6
:1027B00001600948016841F40031016006480830B1
:1027C000016841F40031016084F811902674002002
:1027D000A8E7000080510100000401402DE9F0410C
:1027E0000D4604003BD0C5B3207C01283AD04FF001
:1027F000010884F8108002206074E87872B301F058
:102800005AFBE073687801F056FB6073A87801F01A
:1028100052FBA073C2B2617BE07B01F003FC20732A
:102820002870204601F0EEFB4FF46161B0FBF1F13E
:10283000002518292DD91822B1FBF2F1A1EB0111C5
:1028400001EB4101C1EB011100EBC11631462046FD
:1028500001F027FC0427C8B90BE000E004E00120E8
:10286000BDE8F0810220FBE7E07368786073A87828
:10287000CFE7204601F0BFFB411C0AD0B04208D28E
:1028800006490144204601F0F8FB10B16774257435
:10289000E5E784F8118025740020E1E7805101000C
:1028A0002DE9F0410D46040024D01DB3207C012801
:1028B00023D04FF0010884F810800220607428783B
:1028C000EAB101F0F8FA4FF4616100FB01F66878B3
:1028D00001F0F1FAC0EB001006EB8006A87801F0D9
:1028E000EAFA35182946204601F0DBFB00260427CA
:1028F00010BB0FE00120BDE8F0810220FBE74FF4A0
:10290000616148436978C1EB011100EB8100A9784E
:102910004518E7E72068416821F00501416020463D
:1029200001F069FB411C0AD0A84208D206490144C3
:10293000204601F0A2FB10B167742674DAE784F830
:10294000118026740020D6E78051010070B5040084
:102950000AD02068416821F008014160FEF7B4FE0A
:1029600005464FF47A7608E0012070BDFEF7ACFE14
:10297000401BB04201D9032070BD206840680007A9
:10298000F4D5002070BD00001D4801214175027F73
:10299000521CD2B202770A2A30D300220277817504
:1029A000437F5B1CDBB24377142B27D34277C1757F
:1029B000837F5B1CDBB28377052B1FD38277017685
:1029C000C37F5B1CDBB2C3770A2B17D3C277417678
:1029D00090F820305B1CDBB280F820303C2B0DD30C
:1029E00080F82020817690F821305B1CDBB280F8E3
:1029F00021303C2B02D380F82120C17670470000A3
:102A00000000002010B5401EB0F1807F01D30120EE
:102A100010BD4FF0E02460610F21601701F0CAFE85
:102A20000020A06107202061002010BD10B5FFF735
:102A3000ABFF10BD7047704770B590F83C20012A7D
:102A400026D0012480F83C40022280F83D20036813
:102A50005A689D6822F070060A6832435A600D4B2E
:102A600002689A4208D0B2F1804F05D00A4B9A42D0
:102A700002D00A4B9A4204D1496825F080031943D9
:102A8000916080F83D40002180F83C10084670BD00
:102A9000022070BD002C01400004004000080040EE
:102AA00010B5040003D094F83D0010B107E00120F8
:102AB00010BD002084F83C00204600F01FF80220E2
:102AC00084F83D00211D206801F076FB012084F888
:102AD000460084F83E0084F83F0084F8400084F803
:102AE000410084F8420084F8430084F8440084F8EC
:102AF000450084F83D00002010BD000008B50068C6
:102B0000B0F1804F12D10A48C16941F00101C161A1
:102B1000C069002200F00100009011461C20FFF760
:102B200031F9BDE808401C20FFF71EB908BD0000C0
:102B30000010024090F83D10012901D0012070479B
:102B4000022180F83D100168CA6842F00102CA60A3
:102B500000680B49884208D0B0F1804F05D0094980
:102B6000884202D00849884204D1816801F00701F7
:102B7000062903D0016841F001010160002070477F
:102B8000002C014000040040000800400168CA68B1
:102B900022F00102CA6001680A6A41F211131A4266
:102BA00007D10A6A9B101A4203D10A6822F0010277
:102BB0000A60012180F83D100020704770B504467E
:102BC00090F83C000025012817D0012684F83C60CD
:102BD000022084F83D002068826822F0770222F407
:102BE0007F4282600868502838D00DDC20284FD002
:102BF00005DC90B3102811D14AE0022070BD3028C6
:102C000046D040280AD13BE060282FD070280DD054
:102C1000B0F5805F03D0B0F5005F12D0012584F8D5
:102C20003D60002084F83C00284670BDCB68D1E9A7
:102C30000121206801F0F6FA2068816841F07701EF
:102C400009E0CB68D1E90121206801F0EBFA2068A6
:102C5000816841F480418160E1E719E0CA68496810
:102C6000206801F0F1FA5021206806E0CA6849683E
:102C7000206801F0FAFA6021206801F0DDFACEE761
:102C8000CA684968206801F0DFFA40212068F4E74B
:102C9000226801461046F0E7704770B504460068A8
:102CA00001694FF00005C943890715D4C168C943BC
:102CB000890711D4E91E016101202077206880690D
:102CC0008007204602D0FFF7E7FF04E000F098F805
:102CD000204600F096F8257720680169C943490726
:102CE00017D4C168C943490713D46FF004010161C7
:102CF000022020772068806910F4407F204602D0AF
:102D0000FFF7CAFF04E000F07BF8204600F079F8F6
:102D1000257720680169C943090716D4C168C943EA
:102D2000090712D46FF008010161042020772068A0
:102D3000C0698007204602D0FFF7AEFF04E000F034
:102D40005FF8204600F05DF8257720680169C943E7
:102D5000C90617D4C168C943C90613D46FF010015E
:102D60000161082020772068C06910F4407F204668
:102D700002D0FFF791FF04E000F042F8204600F097
:102D800040F8257720680169C943C90708D1C1689F
:102D9000C943C90704D1891E0161204600F032F8F9
:102DA00020680169C943090609D4C168C9430906F5
:102DB00005D46FF0800101612046FFF73BFE2068DB
:102DC0000169C943490609D4C168C943490605D404
:102DD0006FF040010161204600F0CCF820680169E5
:102DE000C94389060BD4C168C943890607D46FF06B
:102DF000200101612046BDE87040FFF71CBE70BD98
:102E0000704770472DE9F04700684FF08045A842B1
:102E10006FD14C4C4C4F606998B108213846FEF791
:102E200046FC4A496069626851F820105143E962E2
:102E3000401C606114285CD1BDE8F0474448FFF7AE
:102E4000A5BE206900287AD03E48216ADFF80091AB
:102E5000C0684FF0FF364FF40068002511B1182804
:102E600014D023E010284146384604DAFEF71AFC55
:102E700028B1E66057E0FEF715FC0028F9D0E068BD
:102E8000401CE06018284ED1206A2FE041463846A9
:102E9000FEF708FC08B1E66008E0E068182805D1F4
:102EA00041463846FEF7FEFB00B9E560414638462C
:102EB000FEF7F8FB58B141463846FEF7F3FB90B3F6
:102EC000E068401CE060206A0B2819D02BE0E06825
:102ED00080B1012812D00328CBD1206A0121C0F192
:102EE00008029140227811432170E560401C206265
:102EF00019E024E0206A012815D0BAE7E560C3E7AD
:102F000013482561FFF742FED9F800004562217899
:102F100010A001F03FFC1549FF200122087009496B
:102F2000134800F0DBFAE068401C08D10848FFF7BE
:102F30002DFED9F80000456225612562E560BDE8F7
:102F4000F08700009C000020001001407005002068
:102F500010040020526563656976656420646174BD
:102F6000613A203078253032580A000003000020F2
:102F7000580400207047704770470000F8B501689A
:102F800004460868CA684B6910F00F0F4FF000053F
:102F90005AD003F0010602F49077374365D0C10799
:102FA00005D0D10503D5616C41F001016164410791
:102FB00005D5D90703D0616C41F002016164810736
:102FC00005D5D90703D0616C41F0040161640107A4
:102FD00007D502F02001314303D0616C41F00801B4
:102FE0006164616C00293BD0800604D5900602D54F
:102FF000204601F026FA20684069616CC0F3801019
:1030000001F00801014320462BD001F0E5F92068CA
:103010004069400621D52068143050E8001F21F097
:10302000400140E80012002AF5D1E06BA8B16D49DB
:103030004163E06BFEF768F8002811D0E06B416B4C
:1030400001B0BDE8F040084783060ED593060CD5C5
:103050002046BDE8F84001F0F4B92046FFF78CFFA8
:10306000F8BDFFF789FF6564F8BD266B2023012EAC
:103070007CD1C6067AD5D60678D50868486800900F
:1030800048694FF00206400640D5E16B0868406889
:103090000004000CE8D0A28D8242E5D9E085886961
:1030A00020282DD020680C3050E8001F21F48071BA
:1030B00040E80012002AF5D12168143151E8000FD0
:1030C00020F0010041E80002002AF5D12068143008
:1030D00050E8001F21F0400140E80012002AF5D11D
:1030E00084F84230256320680C3050E8001F21F03E
:1030F000100140E80012002AF5D1E06BFDF7E0FF77
:103100006663A08DE18D401A81B22AE0A08DE18D29
:10311000401A81B2E08D0028A6D00029A4D02268F0
:103120000C3252E8000F20F4907042E80007002FA4
:10313000F5D12068143050E8002F22F0010240E859
:103140000027002FF5D184F84230256320680C3029
:1031500050E8002F22F0100240E80023002BF5D1A8
:1031600066632046FFF707FFF8BDFFE705062BD58E
:10317000150629D594F841002128F5D1A068B0F5AD
:10318000805F01D12069B0B1206A411C21622168B1
:1031900000784860E08C401E0004000CE084E3D11D
:1031A0002068C16821F08001C1602068C16841F0D9
:1031B0004001C160D8E7206A0088C0F30800486079
:1031C000206A801C2062E5E74006CDD55006CBD5AD
:1031D000CA68204622F04002CA6084F8413000F0FC
:1031E000B9F9C1E78F42000870B5040004D094F823
:1031F0004100002510B106E0012070BD84F8405068
:10320000204600F023F8242084F841002068C1689B
:1032100021F40051C160204601F074F92068016971
:1032200021F4904101612068416921F02A01416146
:103230002068C16841F40051C1606564202084F8B1
:10324000410084F842006563002070BDF0B585B090
:10325000002400940194029403940646464F0368A8
:10326000464802210322464DBB4251D1836943F4B3
:1032700080438361836903F480430493836943F04B
:10328000040383618069039200F004000490080243
:10329000CDE9000169462846FEF714F92815CDE965
:1032A0000004694628460294FEF70CF9364D35486D
:1032B0008027C5E90004C5E902472C616C61AC6157
:1032C0002846EC61FEF716F808B1FDF771F8F563D2
:1032D0006E622D4D2B484435143801C5102091C520
:1032E000294845F8104944306C61AC61EC61FEF747
:1032F00001F808B1FDF75CF8B56300220221252032
:103300006E62FEF73FFD2520FEF72EFD05B0F0BDF5
:103310001E4EB342FAD1C36943F40033C361C3699B
:1033200003F400330493836943F0040383618069E9
:10333000039200F0040004900420CDE900016946E6
:103340002846FEF7BFF80820CDE900046946284664
:103350000294FEF7B7F8002202212620FEF712FDA4
:103360002620FEF701FD084848380068C16841F092
:103370002001C160CAE7000000380140001002408F
:103380000008014058000240E804002000440040CA
:1033900090F84230202B01D00220704721B11AB1A1
:1033A0000023036301F00AB90120704730B40068BC
:1033B000204988423CD120490878AA2838D1487849
:1033C000552835D1A1F170000A79C27002464B79B7
:1033D000D26A4FF48764012B02D0022B07D00DE094
:1033E000A24201D2521C06E040F26B3203E0B2F579
:1033F0005B7F02D3521EC26200E0C4628A790E492A
:103400007039012A497802D0022A06D00AE00F2931
:1034100001D2491C05E0002103E009B1491E00E08A
:103420000F21417030BC082203490448FFF7B0BFA8
:1034300030BC704700380140700000205804002064
:1034400070472DE9F843044690F841001F461646A0
:103450000D46202802D00220BDE8F8837DB176B168
:1034600000206064212084F84100FEF72DF9A68435
:103470008046E684A068B0F5805F02D003E00120BA
:10348000EAE7206910B12E4600250EE000260CE088
:103490008021204601F0DAF8A0B9AEB116F8010B90
:1034A00021684860E08C401EE084E08C43464FF089
:1034B000000200970028EBD14FF04001204601F0B8
:1034C000C5F830B10320C7E735F8020BC0F3080098
:1034D000E6E7202084F841000020BDE770B50446EF
:1034E00090F84100202801D0022070BD49B342B3BA
:1034F0002162A284E28400206064212384F84130A8
:10350000A56B114BAB62A56B104BEB62A56B104B1F
:103510002B63A36B5863256813462A1DA06BFDF728
:1035200017FF21686FF0400008602068143050E8F1
:10353000001F41F0800140E80012002AF5D1002070
:1035400070BD012070BD00008D430008CF4300080E
:103550009F42000870477047FEE701684A69D243FE
:1035600052050FD46FF480624A61002140F8301F89
:10357000202242738173026942F0040202610173E6
:1035800001207047002070472DE9F84F044600687D
:1035900089460B9D01689846174641F48061016099
:1035A0002068016841F48071016000954FF0011BB3
:1035B0000022594620460A9B00F0E4F84FF4007AB6
:1035C00040B120680068C00501D5C4F840A00320C0
:1035D000BDE8F88F216809F0FE0008612B462849F4
:1035E00020460A9A00F016F9F0BB2068416980690C
:1035F00000902A4620460A9900F0A2F940B1206CBA
:1036000004283AD12068016841F40071016034E077
:10361000FEB2B8F1010F09D02168380A08612A46C4
:1036200020460A9900F08CF90028E8D1206806614C
:103630002A4620460A9900F083F90028DFD1206845
:10364000016841F4807101600095002259462046CE
:103650000A9B00F097F80028B3D1216809F0FF0019
:1036600040F00100086100E007E02B4604492046D5
:103670000A9A00F0CFF80028AAD00120A8E700009D
:10368000020001002DE9F843044600680D46DDE91B
:10369000089701689846164641F4807101604B46D0
:1036A00000224FF001112046009700F06BF848B15E
:1036B00020680068C00502D54FF400702064032024
:1036C000BDE8F883216805F0FE0008613B464A46E4
:1036D0001549204600F09EF888B920684169806944
:1036E00000903A464946204600F02AF948B1206C3D
:1036F000042804D12068016841F4007101600120B0
:10370000DEE7F5B2B8F1010F09D02168300A08618F
:103710003A464946204600F013F90028E7D12068D0
:1037200005610020CCE700000200010070B51646DC
:103730000D4604461EE02046FFF70FFF08B10120AA
:1037400070BD681C16D0FDF7BFFF801BA84200D8D3
:1037500085B920684069C04340070BD5002044F874
:10376000300F20216173A073216941F02001216194
:103770002073E4E720684069C0434007DBD40020A1
:1037800070BD00002DE9F047984617460D460446E7
:10379000C1F30746DDF820902AE000BFB8F1FF3FF3
:1037A00026D0FDF791FFA0EB0901414502D8B8F101
:1037B000000F1DD12068012E16D0806925EA000077
:1037C0000004000C12D00020B84211D1002044F8AF
:1037D000300F20216173A073216941F02001216124
:1037E00020730120BDE8F0874069E7E70120EBE79F
:1037F0002068012E0AD0806925EA00000004000C30
:1038000006D00020B842C9D00020EBE74069F3E7BA
:103810000120F7E72DE9F047984616460D46044685
:103820004FF000094FF0200AC1F3074723E020685A
:103830004069C043400515D42068016841F4007117
:10384000016021686FF480604861C4F8309084F8AA
:103850003DA084F83E90216C41F00401216484F87D
:103860003C9021E0701C06D0FDF72EFFA0EB080075
:10387000B04203D816B1012F1FD021E02068012FDC
:1038800015D0806925EA00000004000C18D000BFA4
:1038900044F8309F84F80DA084F80E90216941F01F
:1038A0002001216184F80C900120BDE8F087406977
:1038B00025EA00000004000CEAD12068406901E01C
:1038C0002068806925EA00000004000CAFD1ECE715
:1038D0002DE9F041002590460E460446202728E0B9
:1038E0004069C043C0060CD454F8301B6FF0100080
:1038F000486144F810596777A577206A20622577D8
:1039000014E0FDF7E1FEA0EB0800B04200D886B954
:1039100020684069C04340060BD544F8305F6773A8
:10392000A573206940F02000206125730120BDE8C7
:10393000F08120684169C9434906D1D40020F6E7E7
:1039400070B516460D4604461EE02046FFF705FEFC
:1039500008B1012070BD681C16D0FDF7B5FE801BB4
:10396000A84200D885B920684069C04300060BD53D
:10397000002044F8300F20216173A073216941F0C9
:10398000200121612073E4E720684069C0430006FC
:10399000DBD4002070BD00000F4810B50268002184
:1039A00051620E4949680901C160FFF779F80A4878
:1039B000FFF7ECF80A48102100220160082141605D
:1039C00001218164C16411461C20FEF7DBF9BDE8CA
:1039D00010401C20FEF7C8B9100400209C000020F5
:1039E0007005002005490A6822F47F420A600A68CF
:1039F00042EA00220A600249C87070470C18014070
:103A00000000002003490A6842F008020A60FFF73C
:103A1000E9BF00000C0C01403EB500211C4800919C
:103A200001911A4A02910260921582600124047386
:103A3000017503254FF460220561C2614160FDF705
:103A4000E3F908B1FCF7B4FC0A20CDE900046946AB
:103A50000F480294FDF756F908B1FCF7A9FC0E20B7
:103A600000900220019069460948FDF74BF908B122
:103A7000FCF79EFC0F20CDE9000569460448FDF7E0
:103A800041F9002801D0FCF793FC3EBD0024014021
:103A9000E0020020114808B5416941F0010141618F
:103AA0004069002200F00100009004210B20FEF785
:103AB00069F90B20FEF758F9002204210E20FEF7C9
:103AC00061F90E20FEF750F9002204210F20FEF7C5
:103AD00059F9BDE808400F20FEF746B90010024032
:103AE0002DE9F04786B000244148009401940294E7
:103AF0000394816941F040018161816901F04001D5
:103B00000491816941F010018161816901F0100126
:103B10000491816941F004018161816901F004012E
:103B20000491816941F0080181618069DFF8C480F6
:103B300000F00800049000224FF660714046FDF747
:103B4000BEFDDFF8B4A0002208215046FDF7B7FD06
:103B5000DFF8A890002207214846FDF7B0FD0122BA
:103B600008214846FDF7ABFD4FF6207001250226DF
:103B7000CDE90005CDE9024669464046FDF7A2FCC5
:103B800040200327CDE90005CDE9024769464046BC
:103B9000FDF798FC0620CDE90004694650460294E2
:103BA000FDF790FC0820CDE90005CDE90247694604
:103BB0005046FDF787FC0F20CDE90005CDE9024610
:103BC00069464846FDF77EFCE80200900C48CDE9C6
:103BD000010469465046FDF775FC002201212820AA
:103BE000FEF7D0F82820FEF7BFF806B0BDE8F08752
:103BF000001002400018014000100140000C01407C
:103C0000000021100D4810B50B4901600C494160BE
:103C100000214FF480428160C0E90312416181615B
:103C2000C1610162FDF756FD002803D0BDE81040D8
:103C3000FCF7BEBB10BD0000005400405403002040
:103C4000A08601000D4810B50B4901600C49416088
:103C500000214FF480428160C0E90312416181611B
:103C6000C1610162FDF736FD002803D0BDE81040B8
:103C7000FCF79EBB10BD000000580040A8030020C8
:103C8000A0860100F0B585B000245048039400944C
:103C900001940294C16941F00061C161C16901F000
:103CA00000610491C16941F08051C161C069494E10
:103CB00000F08050049046483060601E70604FF401
:103CC0008070B0603046FEF751FC08B1FCF770FB25
:103CD00001214048FEF7CEFB45F251073E4DB84268
:103CE0004FD08DF80C408DF80D408DF80E4001221C
:103CF00003A93848FEF7D4FD08B1FCF759FB0120B1
:103D00008DF800008DF801008DF8020002468DF854
:103D1000034069462F48FEF761FD08B1FCF748FBF8
:103D20008DF804408DF805408DF80640012201A968
:103D300028480294FEF77EFC08B1FCF739FB306896
:103D4000016841F001010160009828603A460121B4
:103D50002048FEF797FBEA7802211E48FEF792FB07
:103D60006A7803211B48FEF78DFBAA7804211948C5
:103D7000FEF788FB2A7805211648FEF783FB05B07D
:103D8000F0BD02211348FEF775FBE87003211148CE
:103D9000FEF770FB687004210E48FEF76BFBA870FD
:103DA00005210C48FEF766FB287028680090002269
:103DB00069460848FEF712FD08B1FCF7F9FA3068C9
:103DC000016841F001010160D9E7000000100240E4
:103DD00000280040FC0300209600002010B586B0AB
:103DE00000241648009401940294039404944FF024
:103DF0008041059401604721C0E901148321C0E995
:103E000003148461FEF74CFE08B1FCF7D1FA4FF4BD
:103E10008050009069460948FEF7D0FE08B1FCF7D3
:103E2000C7FA049404A905480594FEF705FE002886
:103E300001D0FCF7BDFA06B010BD00001004002050
:103E40000C4810B50A4901604FF4E131416000218E
:103E500081600C22C160C0E904128161C161FFF779
:103E6000C3F9002803D0BDE81040FCF7A1BA10BD8B
:103E700000380140580400200C4810B50A49016080
:103E80004FF4E1314160002181600C22C160C0E942
:103E900004128161C161FFF7A7F9002803D0BDE8D2
:103EA0001040FCF785BA10BD00440040A00400207B
:103EB000FEE7FEE77047010901EB810100F00F000A
:103EC00000EB4100C0B27047002102E00A38C0B2E6
:103ED000491C0A28FAD2090740EA116070472DE907
:103EE000F04104460025C07B627BA37B42E0012AAF
:103EF00016D0032A14D0052A12D0072A10D0082A77
:103F00000ED00A2A0CD00C2A0AD0042A10D0062A75
:103F10000ED0092A0CD00B2A0AD0022A0DD028E094
:103F20001F2B0CD30C2A05D101221346401C20E084
:103F30001E2B04D30123521C1BE01C2B02D203F1C5
:103F4000010316E011D183B29E0710D16426B3FBA2
:103F5000F6F706FB173636B94FF4C876B3FBF6F71B
:103F600006FB17331BB91D2303E01D2B01D10322D0
:103F700001236D1C8D42BAD3D1B2E0736173DAB202
:103F8000A27300F04FF82073BDE8F08170B50446CD
:103F9000FDF79AFB05464FF47A7606E0FDF794FBB1
:103FA000401BB04201D9032070BD206840688006E4
:103FB000F4D52068416841F010014160002070BDD7
:103FC00070B504460068416821F010014160FDF7BA
:103FD0007BFB05464FF47A7607E000BFFDF774FBE4
:103FE000401BB04201D9032070BD206840688006A4
:103FF000F4D5002070BD0168086A496A89B241EAB7
:1040000000407047006881698AB2C1698BB28169DA
:1040100089B28A4203D0C06961F31F40704743EA06
:1040200002407047F0B56424C1EBC1030927A50025
:10403000072603EB01130329B3FBF7F100F5FA6040
:10404000114401440AD2401EB0FBF4F201EB90018E
:10405000B0FBF5F0891A0844001D08E0B0FBF4F24B
:1040600001EB9001B0FBF5F0891A0844801CB0FB0D
:10407000F6F106FB1100C0B2F0BD70B50D46064664
:104080000024FFF783FF48B93168280C08623168C3
:10409000A8B248623046FFF793FF00B101242046E2
:1040A00070BD70B50D4606460024FFF76FFF48B996
:1040B0003168280C88613168A8B2C8613046FFF7C2
:1040C0007FFF00B10124204670BD704704490A6893
:1040D00022F47F420A600A6842EA002008607047C2
:1040E0000C18014007280DD8074A136823F00F0366
:1040F0001360136800F00700034313600348405C3B
:10410000FFF7E4BF704700000C0C0140780000206E
:1041100010B5FDF7AFFDBDE81040FEF787BC30B528
:1041200093B028216846FCF714F814210AA8FCF77C
:1041300010F800240F94052000904FF48030109464
:10414000119412944100CDE901010121039102254E
:104150000491CDE907504FF4201009906846FDF70F
:10416000F9FF08B172B6FEE70F20CDE90A054FF45A
:104170008060CDE90C404FF4A0600E9002210AA8A7
:10418000FDF702FF08B172B6FEE703200F904FF46F
:1041900080701090800111900FA8FDF77FFE00281D
:1041A00001D072B6FEE713B030BD70470148FEF78C
:1041B00074BD000010040020F0B50268164B174CC7
:1041C000174D4FF08047984205D0B84203D0A04227
:1041D00001D0A84203D122F070064A6832439842C7
:1041E00005D0B84203D0A04201D0A84203D122F4A6
:1041F0004074CA6822434C6922F080022243026064
:104200008A68C2620A688262984201D109690163C0
:1042100001214161F0BD0000002C0140000400407C
:104220000008004010B5846842EA032224F47F4469
:104230000A432243826010BD826822F070020A4362
:1042400042F007018160704710B5036A046A24F0E8
:1042500001040462846924F0F00444EA021423F0A7
:104260000A020A438461026210BD10B5036A046A3F
:1042700024F010040462846923F0A00324F4704441
:1042800044EA023243EA01118261016210BD10B5B5
:10429000406A0021C185C184FEF76EFE10BD70B575
:1042A000446A2068406994F84110C0F3C0100025AA
:1042B000212904D118B1E584204600F0B4F8206823
:1042C000406994F84210C0F38010222904D118B13B
:1042D000E585204600F080F8606C40F010006064D6
:1042E0002046FEF749FE70BD10B50146406A0968D8
:1042F00009684FF0000289062ED4C28501680C318E
:1043000051E8003F23F4807341E80034002CF5D1DC
:104310000168143151E8003F23F0010341E8003403
:10432000002CF5D10168143151E8003F23F040031F
:1043300041E80034002CF5D1202180F84210016BB7
:10434000012909D101680C3151E8003F23F0100325
:1043500041E80034002CF5D14263016B012902D001
:10436000FFF724F810BD818DFEF705FE10BD10B5D6
:10437000406A01214163016B012902D0FFF760F817
:1043800010BD818D4908FEF7F6FD10BD10B5014640
:10439000406A09680968890616D40021C184016849
:1043A000143151E8002F22F0800241E80023002B55
:1043B000F5D101680C3151E8002F42F0400241E88C
:1043C0000023002BF5D110BDFFF7C4F810BD10B5C8
:1043D000406AFFF7C0F810BD01680C3151E8002FAA
:1043E00022F4907241E80023002BF5D101681431CA
:1043F00051E8002F22F0010241E80023002BF5D103
:10440000016B012909D101680C3151E8002F22F01C
:10441000100241E80023002BF5D1202180F8421042
:1044200000210163704701680C3151E8002F22F030
:10443000C00241E80023002BF5D1202180F8411073
:10444000704708B590F84210222901D0022008BD1B
:1044500082684FF480539A4201D1016921B1816A87
:104460009A421BD04AB10AE00268816A5268C2F3DC
:1044700008020A80816A891C08E0026972B1026838
:10448000526802F07F020A70816A491C8162C18D04
:10449000491E0904090CC18503D01BE0026852685B
:1044A000F1E70168CA6822F02002CA600168CA68A0
:1044B00022F48072CA6001684A6922F001024A61EE
:1044C000202180F8421000214163026B012A03D0B1
:1044D000FEF76CFF002008BD016301680C3151E854
:1044E000002F22F0100241E80023002BF5D10168D3
:1044F0000A68D20602D50A6849680091818DFEF7E4
:104500003AFDE7E770B5044600680169E26821F406
:104510004051114301612169A06808436169084362
:104520002168CA6841F20C639A430243CA6020685A
:104530004169A26921F44071114341611E4920681B
:10454000884202D1FDF7CCFD01E0FDF7B9FD00EB9B
:10455000C00101EB0012606864218000B2FBF0F33F
:10456000B3FBF1F36FF018067343B2FBF0F5B2FB47
:10457000F0F605EB8305322303EB0515B5FBF1F5EA
:10458000B6FBF1F605F0F00505EB0615B2FBF0F60B
:10459000B2FBF0F0B0FBF1F06FF01802504306EB05
:1045A000800003EB0010B0FBF1F0216800F00F0079
:1045B0002844886070BD00000038014038B5816231
:1045C00004468285002013466064222284F842203B
:1045D000E56B1B4AAA62E56B1A4AEA62E56B1A4A66
:1045E0002A63E26B50630A462168E06B091DFCF701
:1045F000AFFE2068016840680090206948B12068DB
:104600000C3050E8001F41F4807140E80012002A8D
:10461000F5D12068143050E8001F41F0010140E856
:104620000012002AF5D12068143050E8001F41F034
:10463000400140E80012002AF5D1002038BD0000FA
:10464000E94200086F4300089F4200082DE9F0414D
:10465000984617460E460446069D27E0681C25D05E
:104660002DB1FDF731F8A0EB0800A8421ED9206853
:104670000C3050E8001F21F4D07140E80012002AED
:10468000F5D12068143050E8001F21F0010140E806
:104690000012002AF5D1202084F8410084F842005D
:1046A000002084F840000320BDE8F0812068006805
:1046B00036EA000004D00020B842CFD00020F3E753
:1046C0000120F9E70148FEF759BC0000580400201A
:1046D0002DE9F0412048FEF751FC1F4E306800687C
:1046E000C04380062CD41D4801681E4C1C4D002779
:1046F0002078295430B1012809D002280DD0032890
:104700000BD01CE02878AA2819D1012003E0687892
:10471000552814D10220207012E01348A9780170A6
:1047200012A000F037F81648E978017015A000F0E3
:1047300031F82078401CC0B22070042800D12770C6
:104740003068416941F0010141613068C16841F060
:104750002001C160BDE8F081A004002004440040B5
:104760008D000020950000201300002054656D701E
:10477000657261747572653A2025640A0000000054
:10478000140000204C696768743A2025640A000010
:10479000FEE700000FB4054B10B503A9044A0298C8
:1047A00000F028F810BC5DF814FB0000394D00083B
:1047B000D00000200907090E002804DB00F1E020EA
:1047C00080F80014704700F00F0000F1E02080F83E
:1047D000141D704702E008C8121F08C1002AFAD150
:1047E00070477047002001E001C1121F002AFBD171
:1047F000704700002DE9FF4F8DB00F46054600269B
:1048000006E025280BD0DDE90F1290476D1C761CC1
:1048100028780028F5D111B03046BDE8F08F00248B
:10482000A246A1460122EC4900E0044315F8013FED
:10483000203B02FA03F00842F7D128782A2810D04A
:104840006FF02F022878A0F13001092914D80AEB63
:104850008A0102EB410144F0020400EB010A6D1CE5
:10486000F0E701CF5FEA000A03D544F40054CAF12F
:10487000000A44F002046D1C28782E2817D115F880
:10488000010F44F004042A280ED06FF02F0228787C
:10489000A0F1300109290AD809EB890102EB410195
:1048A00000EB01096D1CF2E757F8049B6D1C28789A
:1048B0006C280FD006DC4C2817D068280DD06A2849
:1048C00014D104E0742810D07A280FD10DE044F4FC
:1048D00000140AE044F4801401E044F440146978C0
:1048E000814202D104F580146D1C6D1C2A786E2A59
:1048F0001FD00CDC632A31D004DC002A8BD0582A6C
:1049000011D1A3E0642A68D0692A0CD165E0732A2A
:104910002ED004DC6F2A73D0702A04D19BE0752A54
:104920006FD0782A6ED01046DDE90F129047761CC2
:1049300050E1C4F30250022806D0032809D004280D
:1049400001CF09D0066045E101CFF117C0E9006150
:1049500040E101CF06803DE106703BE117F8040B12
:104960008DF8000000208DF80100EB46012003E0E7
:1049700057F804BB4FF0FF3061074FF0000102D43D
:104980000DE008F10101884649450FDA8045F8DB62
:104990001BF808100029F4D108E008F1010188464D
:1049A0008142FADB1BF808100029F6D1DDE90F235C
:1049B000AAEB08008146214600F036F9304400EBAE
:1049C000080604E0DDE90F121BF8010B9047B8F16F
:1049D0000108F7D221464846F7E00A21C4F3025302
:1049E0004FF0000B0891022B04D001CFC117032B0D
:1049F00009D00AE0FF1D27F00707F7E8020108E0E9
:104A000032E01FE020E000B2C117042B01D140B218
:104A1000C117031E71F1000307DA4FF0000CD0EB51
:104A20000C006CEB01012D2302E0230504D52B23A0
:104A30008DF82430012303E0E30701D02023F7E7BA
:104A4000984658E00A2110E010210EE010204FF0A7
:104A5000000B08900CE010214FF0000B44F0040410
:104A60004FF00809089103E008214FF0000B08916E
:104A7000C4F30253022B04D001CF0021032B06D034
:104A800006E0FF1D27F00707F7E8020103E080B208
:104A9000042B00D1C0B24FF0000823072BD5702A99
:104AA00007D0DDF820C08CF0100C5CEA0B0C05D0B0
:104AB0000EE040238DF82430012308E050EA010382
:104AC00006D030238DF824308DF825200223984617
:104AD000DDF820C08CF0080C5CEA0B0C0BD150EA1E
:104AE000010301D1630706D530238DF824304FF040
:104AF0000108A9F10109582A04D038A20B9208AA8A
:104B00000A920BE03AA2F9E75B46089AFBF72CFB06
:104B10000B9B9B5C0A9A521E0A92137050EA010288
:104B2000F2D10A98ADEB000000F1200B600702D52E
:104B300024F4803401E04FF00109D94502DDA9EBEE
:104B40000B0000E0002000EB0B0141440890AAEBB1
:104B5000010AE00306D4DDE90F232146504600F0A8
:104B600063F806444FF0000908E009A911F80900AC
:104B7000DDE90F12904709F10109761CC145F4DB0C
:104B8000E0030CD5DDE90F232146504600F04CF838
:104B9000064404E0DDE90F1230209047761C0899A6
:104BA000481E08900029F5DC08E00A980A99007868
:104BB000491C0A91DDE90F129047761CBBF10001F8
:104BC000ABF1010BF1DC21465046DDE90F2300F08B
:104BD00019F806446D1C1BE60928010030313233F8
:104BE0003435363738396162636465660000000029
:104BF0003031323334353637383941424344454613
:104C0000000000002DE9F041044600251E4617462D
:104C1000880404D405E039462020B0476D1C641E8A
:104C2000F9D52846BDE8F0812DE9F041044600257C
:104C30001E469046C80301D5302700E0202788048F
:104C400004D505E041463846B0476D1C641EF9D5D1
:104C50002846BDE8F08100002DE9F04FDFF8D4B020
:104C6000DDE90B96DDE909C709F10B049BF800505B
:104C700004F0FF0A0BF1600415B1012D0AD045E0E4
:104C800020706170A270E37084F804C0677184F8CA
:104C900006903AE09BF807501DB12070012D08D016
:104CA00003E000F10B0884F800806170022D08D049
:104CB00003E001F10B0884F80180A270032D08D0F5
:104CC00003E002F10B0884F80280E370042D09D0A0
:104CD00003E003F10B0884F8038084F804C0052D79
:104CE00008D003E00CF10B0884F804806771062DEE
:104CF00009D003E007F10B0884F8058084F80690DA
:104D0000072D13D001E084F806A0E6719BF8085047
:104D1000042D09D120706170A270E37084F804C082
:104D2000677184F806A0E671BDE8F08F06F10B0507
:104D3000E571EBE70000002013B54FF6FF73012289
:104D400069460248FEF77DFB00981CBD5804002010
:104D50003EB5FCF797FFFFF7E2F9FDF7ABF942F23A
:104D60001071B0FBF1F0FDF74DFEFEF7B9FEFEF756
:104D700091FEFEF751FEFEF785FFFFF761F8FFF7A2
:104D80007BF8FEF75FFFFEF73DFFFFF727F8FEF722
:104D900003FE032228492948FCF70CF9264908227A
:104DA000891D2748FEF79AFB23490822263124480B
:104DB000FEF7EEFAFF20234C411C0094CDE90110D0
:104DC00001230022A1212048FCF748FD1A48217840
:104DD0001E304FF47A72017061784170A178817051
:104DE000072128388DE807000123C0222021174819
:104DF000FCF75CFE08B100203EBD0F4C00254A3C8C
:104E0000607D00B16575A07D10B1A575FBF74AFB0B
:104E1000E07D10B1E575FBF759FE207E10B12576D7
:104E2000FBF7C8FA607E10B16576FBF71FFBA07E2A
:104E30000028E5D0A576E3E74A000020E002002044
:104E400058040020E001002054030020A8030020A3
:104E5000010202030405060708090A0B0C0D0E0FD8
:104E60001010010202030405060708090A0B0C0DC5
:104E70000E0F1010000000000000000001020304EB
:104E8000060708090000000001020304AC4E0008F8
:104E900000000020D4000000D4470008804F000824
:104EA000D4000020EC080000E447000800050000E2
:104EB00000000007010000000000000000000000EA
:104EC00000000000000000000000000000000000E2
:104ED0000000000000000000CF0300000000000000
:104EE000000000000000000000000000111A504007
:104EF0000288A500AA55010002000300AA5501027C
:104F000003040506AA550102030405060102030471
:104F10000506070800000000000000000000000077
:104F2000000000003F065B4F666D7D077F6F00BF8E
:104F300086DBCFE6EDFD87FFEF00000000000000FC
:104F40000000000000000000000000003F02000020
:104F50003602000000000000000000000000000019
:104F60000000000000000000000000000100000040
:104F700010000000000000000024F4000000000009
:04000005080000ED02
:00000001FF
