:03000000021B6779
:0C1B6700787FE4F6D8FD75817B021BAE90
:100CC30000A8C0003F065B4F666D7D077F6F00087D
:100CD3004001414876384000BF86DBCFE6EDFD8713
:100CE300FFEF00EF00C500AF00A00096008E008765
:100CF3000081007C007800740071006D006B006857
:100D0300006500630061005F005D005B005A0058EE
:100D1300005600550054005200510050004E004D43
:100D2300004C004B004A004900480047004600457C
:100D3300004400430043004200410040003F003FA5
:100D4300003E003D003D003C003B003A003A0039C4
:100D530000390038003700370036003600350034DC
:100D630000340033003300320032003100310030F0
:100D73000030002F002F002E002E002D002D002C00
:100D8300002C002B002B002A002A0029002900290F
:100D9300002800280027002700260026002600251B
:100DA3000025002400240024002300230022002225
:100DB300002200210021002000200020001F001F2E
:100DC300001F001E001E001D001D001D001C001C36
:100DD300001C001B001B001B001A001A001A00193C
:100DE3000019001800180018001700170017001644
:100DF3000016001600150015001500140014001449
:100E0300001300130013001200120012001100114E
:100E1300001000100010000F000F000F000E000E56
:100E2300000E000D000D000D000C000C000C000B5B
:100E3300000B000B000A000A000900090009000862
:100E43000008000800070007000700060006000569
:100E53000005000500040004000300030003000272
:100E6300000200010001000100000000FFFFFFFF7E
:100E7300FFFFFFFEFFFEFFFDFFFDFFFCFFFCFFFB8F
:100E8300FFFBFFFAFFFAFFF9FFF9FFF8FFF8FFF79F
:100E9300FFF7FFF6FFF6FFF5FFF5FFF4FFF3FFF3B0
:100EA300FFF2FFF2FFF1FFF0FFF0FFEFFFEEFFEDC8
:100EB300FFEDFFECFFEBFFEAFFE9FFE8FFE7FFE6EB
:100EC300FFE5FFE4FFE3FFE2FFE0FFDFFFDDFFDC21
:100ED300FFDAFFD8FFD5FFD2FFCEFFC9FFC10169FB
:0C0EE30000010203040506070809AA55D7
:10139D00012B01012E00012D00024B000001480020
:1013AD00024F0000013B00014700062503CF050059
:1013BD00010108520000000000000000014E00086D
:0913CD003C0000000000000000DB
:1022F500E4FF1221C2BF010D052BE52BD394044049
:1023050023752B01227F011221C2BF0112C3740163
:10231500955BF55BB4010443470F225347F0227FD9
:05232500021221C2229A
:10005600AF47122779121FAD78447C007D007E00E1
:100066007F03120A1B120003782F7C007D007E009E
:100076007F0A120A1BE536254CF54CE535354BF55E
:100086004B120003782F7C007D007E007F0A120A47
:100096001BE534AE337802CEC313CE13D8F9255000
:1000A600F550EE354FF54F053BE53B64FA7047E5F5
:1000B6003BC313FB7A00254CFFEA354BFEAD3B7C78
:1000C60000120ABB8F2DE5502BFFEA354FFEAD3BE4
:1000D6007C00120ABB8F4875F002EFA424E3F58278
:1000E600E5F0340CF583740193F548E4F53BF54BE4
:1000F600F54CF54FF550E52B64017034E52370306F
:10010600E54475F00A84FFE54475F00A84ADF0E530
:100116004575F00A84F561E54575F00A8485F06257
:1001260075630AE54675F00A84F564E54602027EC3
:10013600E52B64016009E52B6403600302020DE50B
:10014600236401600302020DE54D14603324FE6052
:100156004A14606224FE60791470030201F22407D7
:100166006003020537E5492414FF852261854A624A
:1001760075630A855C64853A657B0AAD5A02053467
:10018600E55A2414FD852261854A6275630A855CF9
:1001960064853A657B0AAF49020534E5222414F5E5
:1001A60061854A6275630A855C64853A657B0AAD3A
:1001B6005AAF49020534852261E54A2414F5627571
:1001C600630A855C64853A657B0AAD5AAF490205C8
:1001D60034852261854A6275630AE55C2414F564F8
:1001E600853A657B0AAD5AAF490205348522618599
:1001F6004A6275630A855C64E53A2414F5657B0AF0
:10020600AD5AAF49020534E52B64027038E52D7509
:10021600F06484FFE52D75F00A8475F00A84ADF06C
:10022600E52D75F00A84ABF075610A75620A75638F
:100236000AE54875F00A84F564E54875F00A848590
:10024600F065020534E52B64037039E55175F00A53
:1002560084FFE55175F00A84ADF0E53975F00A843E
:10026600F561E53975F00A8485F06275630AE5245F
:1002760075F00A84F564E52475F00A8485F0657BDB
:100286000A020534E52B64046003020324E527C350
:10029600940A4003020324C3E52694E8E525940363
:1002A600507CAE25AF267C037DE8120ABB7E007F1C
:1002B60064CFCDCFCECCCE120ABBAB07AE25AF26D0
:1002C6007C037DE8120ABB7E007F64CFCDCFCECC07
:1002D600CE120ABB7E007F0ACFCDCFCECCCE120A7D
:1002E600BBEF2414F5648B6375610A75620AAE254B
:1002F600AF267C037DE8120ABB7E007F64CFCDCF9C
:10030600CECCCE120ABB7E007F0ACFCDCFCECCCECE
:10031600120ABB8D657B0A7D0AAF27020534E52BE1
:10032600640460030203CDE527C3940A4003020375
:10033600CDC3E52694E8E525940350030203CDAE2C
:1003460025AF267C037DE8120ABBAB07AE25AF2698
:100356007C037DE8120ABB7E007F64CFCDCFCECC76
:10036600CE120ABBAA07AE25AF267C037DE8120A89
:10037600BB7E007F64CFCDCFCECCCE120ABB7E0033
:100386007F0ACFCDCFCECCCE120ABBEF2414F564B4
:100396008A638B6275610AAE25AF267C037DE812FF
:1003A6000ABB7E007F64CFCDCFCECCCE120ABB7EF9
:1003B600007F0ACFCDCFCECCCE120ABB8D657B0A8D
:1003C6007D0AAF27020534E52B6404600302047C32
:1003D600E527C3940A500302047CE52694E8E52544
:1003E6009403400302047CAE25AF267C037DE8120D
:1003F6000ABB7E007F64CFCDCFCECCCE120ABBAB7C
:1004060007AE25AF267C037DE8120ABB7E007F641B
:10041600CFCDCFCECCCE120ABB7E007F0ACFCDCFBA
:10042600CECCCE120ABBEF2414F5648B63E5277598
:10043600F00A84FFC007E52775F00A84ADF0C00511
:1004460075610A75620AAE25AF267C037DE8120A3D
:10045600BB7E007F64CFCDCFCECCCE120ABB7E0052
:100466007F0ACFCDCFCECCCE120ABB8D65D005D0BC
:10047600077B0A020534E52B64046003020537E5B1
:1004860027C3940A5003020537E52694E8E5259428
:10049600035003020537AE25AF267C037DE8120A1A
:1004A600BBAB07AE25AF267C037DE8120ABB7E00F8
:1004B6007F64CFCDCFCECCCE120ABBAA07AE25AF76
:1004C600267C037DE8120ABB7E007F64CFCDCFCEAB
:1004D600CCCE120ABB7E007F0ACFCDCFCECCCE12B9
:1004E6000ABBEF2414F5648A638B62E52775F00A6C
:1004F60084FFC007E52775F00A84ADF0C005756175
:100506000AAE25AF267C037DE8120ABB7E007F6417
:10051600CFCDCFCECCCE120ABB7E007F0ACFCDCFB9
:10052600CECCCE120ABB8D65D005D0077B0A12252C
:100536006FE544B55129E545B53924C3E54695240B
:10054600FFE4D39F50047F0180027F00D3EF6480D5
:100556009483500B7D287C007F647E00121D8022D0
:100566007F051220F4EF6401600302063BE52B646D
:10057600016009E52B64036003020624E54D14605F
:100586002824FE605B14606824FE60741470030205
:10059600061624076003020624E549C394025004A4
:1005A6000549807AE4F5498075E549C394025013FC
:1005B600E55AC3940A500C055AE55A640A705FF569
:1005C6005A805BE549B40213E55AC39404500C05FE
:1005D6005AE55A64047047F55A8043E4F55A803E5A
:1005E600E522C39405500405228033E4F522802ECB
:1005F600E54AC394095004054A8023E4F54A801E5F
:10060600E55CC394055004055C8013E4F55C800E3C
:10061600E53AC394095004053A8003E4F53AE52B1C
:100626006404600302094AE527C3940F50030527B3
:1006360022E4F527227F021220F4EF640160030210
:10064600071DE52B64016009E52B640360030207BF
:1006560006E54D14602C24FE606814607524FE7057
:10066600030206E81470030206F824076003020773
:1006760006E549D394004005154902070675490267
:10068600807EE549C39402500AE55A940040041559
:100696005A806DE549C394025009E55A7005755AAA
:1006A60009805DE549B4020BE55AD3940040041570
:1006B6005A804DE54964027047E55A7043755A03FE
:1006C600803EE522D394004004152280337522052E
:1006D600802EE54AD394004004154A8023754A09C2
:1006E600801EE55CD394004004155C8013755C05A0
:1006F600800EE53AD394004004153A8003753A0912
:10070600E52B6404600302094AE527D394004003FD
:1007160015272275270F227F031220F4EF6401604C
:1007260003020861E52B64016005E52BB40307C3EA
:1007360074019523F523E52364017034E52BB40198
:100746002FE54475F00A8485F05AE54575F00A846C
:1007560085F04AE54675F00A8485F03AE54475F079
:100766000A84F549E54575F00A84F522E5468038A0
:10077600E52364017039E52BB40334E55175F00ABD
:100786008485F05AE53975F00A8485F04AE52475C2
:10079600F00A8485F03AE55175F00A84F549E539A1
:1007A60075F00A84F522E52475F00A84F55C22E5E5
:1007B600237065E52B6401705FFD7F8E12002E7F2E
:1007C6008112271EEF4480F52CFD7F8012002EE556
:1007D6005C900EE393C454F0FFE53A934FF52CFD7D
:1007E6007F8012002EE522900EE393C454F0FFE5BD
:1007F6004A934FF52CFD7F8212002EE549900EE3B9
:1008060093C454F0FFE55A934FF52CFD7F841200F4
:100816002E7D807F8E02002EE523600302094AE5C5
:100826002B6403600302094AE54975F00AA4255AB8
:10083600F551E52275F00AA4254AF539E55C75F00F
:100846000AA4253AF524AD51E4FF122652AD397FAC
:1008560001122652AD247F020226527F011220F495
:10086600EF64017060E52B64016006E52B6403709C
:1008760030E54D64016011E54D6404600BE54DC340
:1008860094075004054D8019E54D64016005E54D5A
:10089600B40406054D054D8008E54DB40703E4F59F
:1008A6004DE52B6404600302094AC3E5269438E546
:1008B60025940450090526E526700205252275258E
:1008C60003752677227F041220F4EF6401705CE53D
:1008D6002B64016006E52B6403702FE54D6403600D
:1008E60011E54D6406600BE54DD394004004154DAB
:1008F6008018E54D64036005E54DB40606154D15F3
:100906004D8007E54D7003754D07E52B6404703483
:10091600D3E5269477E52594034009E52615267048
:100926000215252275250475263822E4FF1220F4C7
:10093600BF0111C37401955DF55DB401044347F031
:050946002253470F22BF
:101C7E00E52DC394284006E548940F500B7B007A5F
:101C8E000079527D08122241C37401954EF54EB46F
:101C9E0001277552AA755355854854852D5585478C
:101CAE00568544578545588546597B007A007952AA
:101CBE007D087C001223EE802FE54E702B7552AA04
:101CCE00755356AE25AF26FC7D0A120ABB8F54AE55
:101CDE0025AF267C007D0A120ABB8D5585275685B9
:101CEE0051578539588524597B007A0079527D08E1
:051CFE007C00022498A7
:101EE600854047E541B4011DC3E5269438E52594B0
:101EF60004500A0526E526702C052580287525033D
:101F060075266B8020E541B4021BD3E526946BE56C
:101F1600259403400AE5261526700A1525800675C0
:101F26002504752638E542B4010EE527C3940F5003
:101F360003052722E4F52722E542B4020DE527D35F
:0B1F46009400400315272275270F228E
:1022BE00854147AF3EEF3395E0FE7C007D0A120A62
:1022CE00A9AD3FED3395E0FCEF2DF526EE3CF5255F
:1022DE00854027854239854324AD397F0112265228
:0722EE00AD247F020226521D
:1015EB00785E7C007D007B007A0079257E007F068B
:1015FB00120A1B1224C012258F1225AD12261E7F34
:10160B002B1226AE7F9812232A12254F7D07E4FF5B
:10161B0012274875610A75620A75630A75640A7543
:10162B00650A7B0A7D0A7F0A12256FE4FF12277970
:10163B007F007EC27D017C00121E6F7562017F00F0
:10164B007EC27D017C001219777563FF75640E7580
:10165B0065ED7566007567027B007A00793C7D0845
:10166B007C001223BD7563FF75640E7565ED7566A1
:10167B00007567027B007A00793C7D087C001223A1
:10168B008CE4FF1225CA8F517F011225CA8F397F37
:10169B00021225CA8F247BFF7A1E79E67F09121D61
:1016AB00037BFF7A2279BE7F0A121D037BFF7A220E
:1016BB0079F57F04121D037BFF7A007956E4FF1244
:1016CB001D037BFF7A0579667F07121D037BFF7A6B
:1016DB001C797E7F02121D0312277F12228080FB52
:06263900C296C295D29684
:10263F00E4FEC295EF1392CCEFC313FFD2950EBEFB
:02264F0008F091
:012651002266
:10000E00E4FEC295EFC313FF30CC03430780D295B5
:04001E000EBE08EE1C
:0100220022BB
:0D002E00122639AF0512263FC296D2952248
:0A271E0012263912000EC296D29561
:01272800228E
:101FAD007F8112271EAD07ED5470C4540F75F00AD2
:101FBD00A4FFED540F2FF5607F8312271EAD07EDA3
:101FCD005470C4540F75F00AA4FFED540F2FF55F34
:101FDD007F8512271EAD07ED5470C4540F75F00A9E
:101FED00A4FFED540F7C002FFFEC35F0FE7D181291
:0A1FFD000ABB8D5E7B007A00795E5E
:0120070022B6
:10258F00E4FD7F8E12002E7F8112271EEF547FF500
:0E259F0073FD7F8012002E7D807F8E02002E45
:09273F008B88898C88898F8889B8
:1013D60052007A8686008686008686008686008685
:0913E600860086860041006F09B3
:03002B0002277336
:0627730053BCEFD20F324F
:0210C100157B9D
:1010C300200F0302126AC20F90006EE0B4090040C1
:1010D3000302124C9010DEF8282873021125021027
:1010E300F902110B0211370210F902110B02114E12
:1010F3000210F902110BAFBDEFFEADBE7C00E42D73
:10110300FFEC3E900070803CAFBDEFFEADBE7C00B7
:10111300E42DFFEC3E900072F0A3EFF07574010232
:101123001252AFBDEFFEADBE7C00E42DFFEC3E904E
:1011330000748010AFBDEFFEADBE7C00E42DFFEC6C
:101143003E900076F0A3EFF0021252AFBDEFFEAD7A
:10115300BE7C00E42DFFEC3E900078F0A3EFF0900E
:101163000078E0FEA3E07807CEC313CE13D8F9A826
:101173007BF6C394065013A87BE675F003A4247A88
:10118300F582E43400F583E014F090006FE014F08E
:1011930060030212527409F0A87BE4F6A87BE6FF11
:1011A300C394064003021252EF75F003A4247AF5A8
:1011B30082E43400F583E0C39480502AE6FF75F09F
:1011C30003A4247BF582E43400F583E0D3948040C8
:1011D30040EF75F003A4247CF582E43400F58374B6
:1011E30001F0F575802BA87BE6FF75F003A4247B43
:1011F300F582E43400F583E0C394805014EF75F076
:1012030003A4247CF582E43400F5837402F075753D
:1012130001A87BE6FF75F003A4247AF582E4340089
:10122300F583E0FEEF75F003A4247BF582E434003C
:10123300F583EEF0E675F003A4247AF582E4340036
:10124300F5837486F00602119F90006E74FFF09090
:10125300006EE0D39407400374FFF090006EE00447
:07126300F090273F93F5BC5A
:03126A00057B22DF
:0226DC00157B6C
:0926DE00A87BA675E4F575E6FF82
:0326E700057B224E
:0226EA00157B5E
:0926EC00A87BA674E4F574E6FF76
:0326F500057B2240
:10232A008F9D75BC88439720D2AD90004574FFF00D
:10233A00A37410F0A374C1F0A374FFF0A37426F081
:10234A00A374DCF0A374FFF0A37426F0A374EAF07C
:01235A002260
:070003007B017A00797022F5
:1020F400C3EF64809480403BD3EF64809485503375
:10210400EFFD3395E0FC90007C75F003ED120CB10B
:10211400EC75F003A42583F583E0FE90007C75F054
:1021240003ED120CB1EC75F003A42583F583E4F000
:05213400AF06227F034D
:012139002283
:04244800157B157B70
:10244C00122751A87BA60608A607A87BE6FE08E67D
:0F245C00FF4E600BEF24FFFFEE34FFFE12275AF6
:05246B00057B057B224A
:10254F0053B1EF43B21012003EE4F5D975DA49D218
:10255F00DE90003F74FFF0A37424F0A37448F022C0
:081D80008E5E8F5F8C608D61A7
:101D8800122751EF4E7066AF61AE6012275AC3E555
:101D98005F940AE55E9400404BE47B18FAF9F890EA
:101DA8000CC3120C95120BDCC006C007AE5EAF5F09
:101DB800AB07AA06E4F9F8D007D006120BDCAB078C
:101DC800AA06AFF9EFFEADE97C00E42DFFEC3ECFAB
:101DD8002BCF3AAD07FCAF03AE0212268DD2D84303
:0F1DE800DA01800612003E53DAFE7F02227F03EB
:011DF70022C9
:0C270600122751EF4E7002FF227F0122CB
:1017D800E4F5809000C1E0FFB40800505F9017EC7A
:1017E800F828287302180402180A0218100218169A
:1017F80002181C02182602183002183AC2A3C2A204
:101808008016C2A3C2A2801AC2A3C2A2801EC2A30B
:10181800C2A28022C2A3D2A2C2A1C2A08020C2A317
:10182800D2A2C2A1D2A08016C2A3D2A2D2A1C2A023
:10183800800CC2A3D2A2D2A1D2A08002D2A3C3EFAD
:101848006480948850299000C1E0FF3395E0FE74CD
:10185800B82FF58274003EF583E0FF3395E0FE74FF
:10186800C72FF582740C3EF583E493F580801E90B3
:1018780000C1E0FFB408133395E0FE74B82FF58279
:1018880074003EF583E0F5808003E4F5809000B7AE
:10189800E0FF9000C1E004FEF0D3EF6480F8EE644E
:1018A80080984014E0D36480948850047408F0222F
:0918B8009000B6E09000C1F0229E
:10261E00E4F5937594FF5395F043960F90002A744A
:0B262E00FFF0A37417F0A374D8F02293
:092748009000B6EFF0A3EDF022C1
:10256F009000B8EFF0A3EDF0A3EBF0A3E561F0A3BB
:10257F00E562F0A3E563F0A3E564F0A3E565F0225F
:062779009000C0EFF02209
:1013EF00017A004900C394940094940094940041AE
:0313FF0000C21E0B
:0214C800157B92
:1014CA0020B2069000C3E014F020B3069000C6E0F4
:1014DA0014F02097069000C9E014F09000C2E014BE
:1014EA00F060030215E8741EF0A87BE4F6A87BE618
:1014FA00FFC36480948340030215E8EF3395E0FE4E
:10150A009000C375F003EF120CB1EE75F003A42539
:10151A0083F583E0C3948050399000C475F003EFDB
:10152A00120CB1EE75F003A42583F583E0D3948001
:10153A00405AE6FF3395E0FE9000C575F003EF12BE
:10154A000CB1EE75F003A42583F5837401F0F57AE6
:10155A00803AA87BE6FF3395E0FE9000C475F0035D
:10156A00EF120CB1EE75F003A42583F583E0C39462
:10157A008050199000C575F003EF120CB1EE75F0AA
:10158A0003A42583F5837402F0757A01A87BE6FF2C
:10159A00FD3395E0FC9000C375F003ED120CB1EC3D
:1015AA0075F003A42583F583E0FE9000C475F0036B
:1015BA00ED120CB1EC75F003A42583F583EEF0EF80
:1015CA003395E0FE9000C375F003EF120CB1EE758F
:0E15DA00F003A42583F5837494F0060214F741
:0315E800057B225E
:0226F800157B50
:0926FA00A87BA67AE4F57AE6FF5C
:03270300057B2231
:1025AD0090003074FFF0A37426F0A374F8F090003F
:0D25BD002D74FFF0A37414F0A374C8F02275
:1021C200EF600764016003BF0233EFFD3395E0FC6B
:1021D2009000C575F003ED120CB1EC75F003A42567
:1021E20083F583E0FE9000C575F003ED120CB1ECAF
:0F21F20075F003A42583F583E4F0AF06227F0385
:0122010022BA
:101402004100000A4100290A41006D0A040E000051
:1014120000000114004600670000FFFF8FFFC10DAE
:10142200C105C108C101C10E60240005FF000AFF09
:10143200000AFF000AFF000AFF000AFF000AFF007D
:101442000AFF000AFF000AFF000AFF000AFF000A63
:101452006036002AFF000AFF000AFF0026FF000A8A
:10146200FF0026FF000AFF0026FF000AFF000AFF16
:10147200000AFF0026FF0026FF0026FF0026FF00CD
:0A1482000AFF000AFF000AFF000A3B
:01000A0022D3
:030026007F002236
:1020AD00438E805389F07BE07A2879017800900C7B
:1020BD00C3120C9512217EEFF404F58A7BE07A2889
:1020CD0079017800900CC3120C9512217EC3E49F08
:1020DD00FFE49EFE74019DFDE49CFC7808120C81CA
:0720ED008F8CD28CD2A922D6
:03000B0002205B75
:04205B00C0E0C0D051
:10205F00D5080A75084C300D020514D20DA2037273
:10206F00045036150AE50A7030850C0AD207300A7B
:10207F0017E50D6007150D438F01801D538FFEC2AD
:10208F00B5D51615C20A8011050BE50BD394064082
:09209F0008C203E5136002D20639
:0520A800D0D0D0E032B1
:10200800300E47C20E900CC3120C957810120C813A
:102018008E768F77900003E0FEA3E0FFE4FCFD7B63
:1020280019FAF9F8120B51C006C007AE76AF77ABB4
:1020380007AA06E4F9F8D007D00612217E78031221
:102048000C81900065EEF0A3EFF0900065E0FEA330
:02205800E0FFA7
:01205A002263
:09275100900067E0FEA3E0FF2206
:09275A00900067EEF0A3EFF022FD
:10268D0090006BEEF0A3EFF0900069ECF0A3EDF08D
:01269D00221A
:03003E00C2B42227
:03003B00021A2C7A
:101A2C00C0E0C083C082C0D075D000C004C005C067
:031A3C0006C007DA
:101A3F0030DF04C2DF807D30DA04C2DA807630D93D
:101A4F003DC2D9AFFBEFFEADEB7C00E42DFFEC3ECA
:101A5F0020000E900001F0A3EFF075DB11D2008093
:101A6F0053FE900001E0FCA3E0FDC3EF9DFFEE9C51
:101A7F00A3F0A3EFF075DB00C200D20E803630D892
:101A8F0033C2D8900067E07002A3E06022B2B49036
:101A9F000069E0FEA3E0F5EAEEF5FAA3E0FEA3E0AD
:101AAF00FF90006AE02FF0900069E03EF08005C2E1
:041ABF00B453DAFE44
:101AC300D007D006D005D004D0D0D082D083D0E0C8
:011AD30032E0
:06277F001220ADD2AF22D2
:101BF3003004047F0180027F00200A047E018002FA
:101C03007E00EE5F6074E515C395095068300236B7
:101C1300750D01E515131313541FAB17AA18A91952
:101C2300F582758300120A5AFFE515540704FEEF87
:101C3300A806088002C333D8FC30D7057516038085
:101C43002F751601802AAB17AA18A91975F002E59A
:101C530015A4F58285F083120A5AF50DE51575F082
:101C630002A429F9EA35F0FA900001120A5AF5168E
:0A1C73000515D20A22C204438F10A7
:011C7D002244
:1016EB00900000E014F0701F740AF0D205900029EE
:1016FB00E014F07012740AF0D20890006DE014F050
:10170B007005740AF0D20190002AA3E0FAA3E0F965
:10171B00120CBD90002DA3E0FAA3E0F9120CBD90C2
:10172B000039A3E0FAA3E0F9120CBD900045A3E049
:10173B00FAA3E0F9120CBD900054A3E0FAA3E0F970
:10174B00120CBD90005DA3E0FAA3E0F9120CBD9062
:10175B00004BA3E0FAA3E0F9120CBDEF600C900074
:10176B001DA3E0FAA3E0F9120CBD90004EA3E0FA22
:10177B00A3E0F9120CBDEF600E900020A3E0FAA3DA
:10178B00E0F9120CBDD20BE512D394004016D51222
:10179B003030090C900023A3E0FAA3E0F9120CBD42
:1017AB00D20C801D900051A3E0FAA3E0F9120CBDFE
:1017BB00EF600E900023A3E0FAA3E0F9120CBDD268
:0D17CB000C900005A3E0FAA3E0F9020CBDAC
:101AD40090003FA3E0FAA3E0F9120CBD900042A3EA
:101AE400E0FAA3E0F9120CBD900033A3E0FAA3E0FE
:101AF400F9120CBD900008A3E0FAA3E0F9120CBDA2
:101B0400900030A3E0FAA3E0F9120CBDEF600C9052
:101B14000011A3E0FAA3E0F9120CBD900036A3E093
:101B2400FAA3E0F9120CBDEF600C900017A3E0FAE1
:101B3400A3E0F9120CBD900048A3E0FAA3E0F91267
:101B44000CBDEF600C90001AA3E0FAA3E0F9120CAC
:101B5400BD30060EC206900026A3E0FAA3E0F912F7
:031B64000CBD2293
:1022020090000BA3E0FAA3E0F9120CBD90003CA3EE
:10221200E0FAA3E0F9120CBDEF600C900014A3E009
:10222200FAA3E0F9120CBD900057A3E0FAA3E0F97B
:0F223200120CBD90005AA3E0FAA3E0F9020CBD14
:10241D00AF11AE10AD0FAC0E900060120CA5900078
:10242D0064E514F0E4F511F510F50FF50EF51490C3
:0B243D00000EA3E0FAA3E0F9020CBDC2
:10228000300705C207121BF3300D05C20D1216EB05
:10229000300505C205121AD4300805C20812220200
:1022A000300105C20112241DE5112401F511E435A8
:0E22B00010F510E4350FF50FE4350EF50E2293
:101D03008B5E8A5F8960EFB40C005070901D16F8EB
:101D1300282873021D3A021D3F021D44021D490279
:101D23001D4E021D53021D58021D5D021D62021D40
:101D330067021D6C021D71900005803590000880BC
:101D43003090000B802B90000E8026900011802194
:101D5300900017801C900014801790001A80129036
:101D6300001D800D900020800890002380039000C8
:0D1D730026E55EF0A3E55FF0A3E560F02239
:07276C007B017A0079602275
:10269E00D2C0000000D2CD000000C2C00000002257
:0D004600C2C0000000D2CD000000D2C022D8
:0B24E5001225091224F0AF0512250992
:1024F000E4FFD2CD30C009EFC394FF50030F80F446
:08250000000000C2CD00000044
:0125080022B0
:10250900E4FEEF25E0FFC2CD00000092C00000000C
:10251900D2CD0000000EBE08E9C2CD000000D2C035
:03252900000000AF
:01252C00228C
:10252D00C2CD000000D2C000E4FED2CD0000EF25E8
:10253D00E0FDA2C0E4334DFF0000C2CD000EBE0889
:01254D00E9A4
:01254E00226A
:10265200AC0712269E7FA01225091224F0AF0412A5
:0526620024E502004622
:0225CA00AD075B
:1025CC0012269E7FA01224E512269E7FA1122509B9
:0925DC001224F012252D12004614
:0125E50022D3
:0B148C004800CCD4111A50400288A583
:092667007F03122670D2C57F0327
:0A267000AE071FEE60030080F722A2
:10267A00D2A7122667C2A77F03122670C2C57F039C
:03268A00022670B5
:0C271200C2A7122667D2A77F0302267020
:1025E600E4FFD2C530A709EFC394FA50030F80F475
:0C25F6007F03122670C2C57F030226700E
:02247000AD07B6
:10247200E4FBC2C57F03122670ED3392A7ED25E07F
:10248200FD1226670BBB08EAC2C57F03122670D273
:06249200C57F0302267065
:02213A00157B13
:10213C009000D4E06401703712267A7F201224704C
:10214C001225E6A87BE4F6A87BE6FFC3940850179B
:10215C0074CC2FF582E43400F583E0FF1224701266
:0F216C0025E6A87B0680E0122712E49000D4F04D
:03217B00057B22BF
:101F51009000CEE025E025E0FFA3E0C41313540375
:101F61002F2466F56BE43403F56A9000D3E0540F37
:101F7100F56C9000D1E0543FFF5403FEBE0305759C
:101F81006DFF8003E4F56DEF540CFEBE0C05756E1C
:101F9100FF8003E4F56EEF5430FFBF3005756FFF2E
:0B1FA1008003E4F56F7B007A00796A92
:011FAC002212
:1018C100D3E5659438E564940450047F0180027F78
:1018D10000C3E5659466E564940340047E018002DB
:1018E1007E00EE5F6030121F51120B266565700499
:1018F100E5F065646020E565249AFD1313543F907B
:1019010000CEF0ED5403FFC4333354C04410A3F0B0
:101911009000D47401F0121F51E92402F9E43AFA5B
:10192100120A41656660047F0180027F00E566D38B
:10193100940F50047E0180027E00EE5F6011E56627
:10194100540FFF9000D3E054F04FF0A37401F07DE9
:101951002AE5676003430501E5686003430504E583
:101961006960034305109000D1E06D6008EDF090CF
:0519710000D47401F038
:01197600224E
:1024C00078647C007D007B007A00795E7E007F0668
:1024D000120A1B1218C190005774FFF0A37421F068
:0524E000A3743AF02294
:1026AE0053B1DF43B220C2B5C20A8F0C438F102242
:03005300021DF893
:101DF800C0E0C083C082C0D075D000C000C001C0A0
:031E080002C00312
:101E0B00200313D203751B08751300751A00E50C1C
:101E1B00C313F50A803AE50BC394014031E51A254B
:101E2B00E0F51AE50BC394034002051AD51B21E517
:101E3B0013C3951C501A751B08AB1DAA1EA91F8531
:101E4B001382758300E51A120A8705138002C203F9
:031E5B00750B0004
:101E5E00D003D002D001D000D0D0D082D083D0E039
:011E6E003241
:092763008B1D8A1E891F8D1C22AA
:03278500AF13226D
:10235B002003047F0180027F00200A047E0180029B
:10236B007E00EE5F60188B178A188919EDC313F581
:10237B0009C202E4F515538FEFD2047F02227F03CB
:01238B00222F
:102241002003047F0180027F00200A047E018002B6
:102251007E00EE5F6026538FEF750D10751608D264
:102261000A438F018B178A188919ED75F008A404A8
:0F227100F509D202E4F515D2047F02227F032281
:102602002003047F0180027F00200A047E018002F1
:0C2612007E00EE5F60037F00227F01224B
:1014970055008C0000000000000000000000000064
:0814A70000000100000000003C
:03004300020EEFBB
:100EEF00C0E0C0F0C083C082C0D075D000C000C0C9
:100EFF0001C002C003C004C005C006C007E59A3098
:100F0F00E142539AFD900091E0FEA3E0FFC39000F1
:100F1F0090E09F90008FE09E501F90008CE0FBA30D
:100F2F00E0FAA3E0F9A3E475F001120B1085F0824B
:100F3F00F583120A5AF59B800B900093E4F0E57944
:100F4F006002C2B7E59A20E0030210A6539AFE3062
:100F5F000C0BC20C900099E4F0A3F0D209E5796470
:100F6F00026003021000900097E0FEA3E0FFA3E0F1
:100F7F00FCA3E0FDC39FEC9E5071900094E0FBA397
:100F8F00E0FAA3E0F98D828C83E59B120A8790002B
:100F9F009FE0FEA3E0FFC3ED9FEC9E5040900097B3
:100FAF00E0FCA3E0FDEF9DEE9C503290009CE0FB37
:100FBF00A3E0FAA3E0F9900099E0FEA3E0FFF58229
:100FCF008E83120A5AFD900094E0FBA3E0FAA3E08F
:100FDF00F98F828E83120A5A6D6002C20990009AAD
:100FEF00E004F07006900099E004F085781202108A
:100FFF00A6900097E0FEA3E0FFA3E0FCA3E0FDC3F3
:10100F009FEC9E5077900094E0FBA3E0FAA3E0F9E9
:10101F008D828C83E59B120A8790009FE0FEA3E0F0
:10102F00FFC3ED9FEC9E5046900097E0FCA3E0FDC0
:10103F00EF9DEE9C503890009CE0FBA3E0FAA3E0FC
:10104F00F9900099E0FEA3E0FFF5828E83120A5A11
:10105F00FD900094E0FBA3E0FAA3E0F98F828E836A
:10106F00120A5A6D600890009974FFF0A3F0900077
:10107F009AE004F07006900099E004F0900097E079
:10108F00FEA3E0FFC390009AE09F900099E09E407E
:10109F000690009B7401F0D007D006D005D004D085
:1010AF0003D002D001D000D0D0D082D083D0F0D0E6
:0210BF00E0321D
:0226BE00157B8A
:0A26C00090009BE0A87BF6FFE4F019
:0326CA00057B226B
:0100290022B4
:101977008F618E608D5F8C5E856279E579700280FC
:101987000343BA01E579701790005D74FFF0A37403
:1019970000F0A37429F0E4F5DBD290D2918020C245
:1019A700B7AB61AA60A95FA85EE47F407E9CFDFC9F
:1019B700120BDC8F78E578700375780185781275DE
:1019C7009A10E47B04FAF9F8900CC3120C95120BE9
:1019D700DCAB61AA60A95FA85E120BDCEFF404F52B
:1019E700D7E47B04FAF9F8900CC3120C95120BDCC0
:1019F700AB61AA60A95FA85E120BDCC3E49FFFE49A
:101A07009EFE74019DFDE49CFC7808120C6E8FD637
:101A1700438E1443AF0190005174FFF0A37426F076
:051A2700A374BEF022D3
:10238C00900094EBF0A3EAF0A3E9F0A3ECF0A3ED3A
:10239C00F090009FE566F0A3E567F090009CE56384
:1023AC00F0A3E564F0A3E565F0D20CE490009BF09B
:0123BC0022FE
:1023EE00900093E0702690008CEBF0A3EAF0A3E946
:1023FE00F0E4A3F0A3F0A3ECF0A3EDF0A37401F0CE
:0F240E00E5796002D2B7439A027F02227F032250
:0B272900900093E07002FF227F01226D
:1014AF005500A10000000000000000000000000037
:0814BF00000001000000000024
:0300230002126D59
:10126D00C0E0C0F0C083C082C0D075D000C000C047
:10127D0001C002C003C004C005C006C00730993BC1
:10128D00C2999000A6E0FEA3E0FFC39000A5E09FE9
:10129D009000A4E09E501F9000A1E0FBA3E0FAA3F4
:1012AD00E0F9A3E475F001120B1085F082F58312BD
:1012BD000A5AF59980059000A8E4F02098030213CE
:1012CD0082C298300B09C20B9000AEE4F0A3F090EF
:1012DD0000ACE0FEA3E0FFA3E0FCA3E0FDC39FECA8
:1012ED009E50779000A9E0FBA3E0FAA3E0F98D8270
:1012FD008C83E599120A879000B4E0FEA3E0FFC34A
:10130D00ED9FEC9E50469000ACE0FCA3E0FDEF9D00
:10131D00EE9C50389000B1E0FBA3E0FAA3E0F99009
:10132D0000AEE0FEA3E0FFF5828E83120A5AFD9017
:10133D0000A9E0FBA3E0FAA3E0F98F828E83120AE5
:10134D005A6D60089000AE74FFF0A3F09000AFE00E
:10135D0004F070069000AEE004F09000ACE0FEA347
:10136D00E0FFC39000AFE09F9000AEE09E4006907E
:10137D0000B07401F0D007D006D005D004D003D052
:10138D0002D001D000D0D0D082D083D0F0D0E032C6
:0226CD00157B7B
:0A26CF009000B0E0A87BF6FFE4F0F5
:0326D900057B225C
:101E6F008F618E608D5F8C5E759850438E40538E60
:101E7F00FE53890FE47B04FAF9F8900CC3120C950A
:101E8F00120BDCAB61AA60A95FA85E120BDCEFF44A
:101E9F0004F58BE47B04FAF9F8900CC3120C95123D
:101EAF000BDCAB61AA60A95FA85E120BDCC3E49FD9
:101EBF00FFE49EFE74019DFDE49CFC7808120C6EFD
:101ECF008F8DC2ABD28ED2AC90004E74FFF0A37444
:071EDF0026F0A374CDF022F0
:1023BD009000A9EBF0A3EAF0A3E9F0A3ECF0A3EDF4
:1023CD00F09000B4E566F0A3E567F09000B1E56329
:1023DD00F0A3E564F0A3E565F0D20BE49000B0F056
:0123ED0022CD
:102498009000A8E0701F9000A1EBF0A3EAF0A3E978
:1024A800F0E4A3F0A3F0A3ECF0A3EDF0A37401F023
:0824B800D2997F02227F03226A
:0B2734009000A8E07002FF227F01224D
:101B73000215EBE493A3F8E493A34003F68001F288
:101B830008DFF48029E493A3F85407240CC8C33373
:101B9300C4540F4420C8834004F456800146F6DF42
:101BA300E4800B010204081020408090139DE47E22
:101BB300019360BCA3FF543F30E509541FFEE49337
:101BC300A360010ECF54C025E060A840B8E493A3FE
:101BD300FAE493A3F8E493A3C8C582C8CAC583CA29
:101BE300F0A3C8C582C8CAC583CADFE9DEE780BEE1
:0114C7000024
:10094B00E709F608DFFA8046E709F208DFFA803E8E
:10095B0088828C83E709F0A3DFFA8032E309F6087B
:10096B00DFFA8078E309F208DFFA807088828C83E3
:10097B00E309F0A3DFFA806489828A83E0A3F60897
:10098B00DFFA805889828A83E0A3F208DFFA804C71
:10099B0080D280FA80C680D4806980F28033801048
:1009AB0080A680EA809A80A880DA80E280CA8033B1
:1009BB0089828A83ECFAE493A3C8C582C8CCC58329
:1009CB00CCF0A3C8C582C8CCC583CCDFE9DEE780F9
:1009DB000D89828A83E493A3F608DFF9ECFAA9F078
:1009EB00EDFB2289828A83ECFAE0A3C8C582C8CCCE
:1009FB00C583CCF0A3C8C582C8CCC583CCDFEADEE7
:100A0B00E880DB89828A83E493A3F208DFF980CC48
:100A1B0088F0EF60010E4E60C388F0ED2402B40441
:100A2B000050B9F582EB2402B4040050AF232345E8
:060A3B00822390099B7369
:100A4100BB010689828A83E0225002E722BBFE02B3
:090A5100E32289828A83E49322E6
:100A5A00BB010CE58229F582E5833AF583E0225051
:100A6A0006E92582F8E622BBFE06E92582F8E2229B
:0D0A7A00E58229F582E5833AF583E49322B5
:100A8700F8BB010DE58229F582E5833AF583E8F0A5
:100A9700225006E92582C8F622BBFE05E92582C851
:020AA700F22239
:100AA900EF8DF0A4A8F0CF8CF0A428CE8DF0A42E61
:020AB900FE221B
:100ABB00BC000BBE0029EF8DF084FFADF022E4CC1F
:100ACB00F875F008EF2FFFEE33FEEC33FCEE9DECE8
:100ADB00984005FCEE9DFE0FD5F0E9E4CEFD22ED2E
:100AEB00F8F5F0EE8420D21CFEADF075F008EF2F78
:100AFB00FFED33FD4007985006D5F0F222C398FD69
:050B0B000FD5F0EA2205
:100B1000A3F8E0C5F025F0F0E58215827002158398
:060B2000E0C838F0E822F5
:100B2600BB010A89828A83E0F5F0A3E0225006879A
:100B3600F009E71922BBFE07E3F5F009E31922895C
:0B0B4600828A83E493F5F0740193228F
:100B5100E88FF0A4CC8BF0A42CFCE98EF0A42CFC43
:100B61008AF0EDA42CFCEA8EF0A4CDA8F08BF0A4C1
:100B71002DCC3825F0FDE98FF0A42CCD35F0FCEB20
:100B81008EF0A4FEA9F0EB8FF0A4CFC5F02ECD39E5
:0F0B9100FEE43CFCEAA42DCE35F0FDE43CFC2252
:100BA00075F008758200EF2FFFEE33FECD33CDCC0C
:100BB00033CCC58233C5829BED9AEC99E58298408F
:100BC0000CF582EE9BFEED9AFDEC99FC0FD5F0D66C
:100BD000E4CEFBE4CDFAE4CCF9A88222B800C1B996
:100BE0000059BA002DEC8BF084CFCECDFCE5F0CBD4
:100BF000F97818EF2FFFEE33FEED33FDEC33FCEB0D
:100C000033FB10D703994004EB99FB0FD8E5E4F9C7
:100C1000FA227818EF2FFFEE33FEED33FDEC33FCB4
:100C2000C933C910D7059BE99A4007EC9BFCE99AA8
:100C3000F90FD8E0E4C9FAE4CCFB2275F010EF2FED
:100C4000FFEE33FEED33FDCC33CCC833C810D707ED
:100C50009BEC9AE899400AED9BFDEC9AFCE899F828
:0E0C60000FD5F0DAE4CDFBE4CCFAE4C8F922BB
:10217E00C2D5E830E70FB2D5E4C39BFBE49AFAE48C
:10218E0099F9E498F8EC30E717B2D51221B4120B96
:10219E00DCE4C39BFBE49AFAE499F9E498F8800333
:1021AE00120BDC30D50DE4C39FFFE49EFEE49DFDD3
:0421BE00E49CFC227F
:100C6E00E8600FECC313FCED13FDEE13FEEF13FF64
:030C7E00D8F12288
:100C8100E86010ECA2E713FCED13FDEE13FEEF1389
:040C9100FFD8F02276
:100C9500E493FC740193FD740293FE740393FF22A5
:0C0CA500ECF0A3EDF0A3EEF0A3EFF022C2
:0C0CB100A42582F582E5F03583F583224E
:060CBD008A838982E473C2
:00000001FF
