:030000000217459F
:0C174500787FE4F6D8FD75817102178CE6
:1006860000A8C0003F065B4F666D7D077F6F0008C0
:100696004001414876384000BF86DBCFE6EDFD8756
:1006A600FFEF00EF00C500AF00A00096008E0087A8
:1006B6000081007C007800740071006D006B00689A
:1006C600006500630061005F005D005B005A005832
:1006D600005600550054005200510050004E004D87
:1006E600004C004B004A00490048004700460045C0
:1006F600004400430043004200410040003F003FE9
:10070600003E003D003D003C003B003A003A003907
:10071600003900380037003700360036003500341F
:100726000034003300330032003200310031003033
:100736000030002F002F002E002E002D002D002C43
:10074600002C002B002B002A002A00290029002952
:10075600002800280027002700260026002600255E
:100766000025002400240024002300230022002268
:10077600002200210021002000200020001F001F71
:10078600001F001E001E001D001D001D001C001C79
:10079600001C001B001B001B001A001A001A00197F
:1007A6000019001800180018001700170017001687
:1007B600001600160015001500150014001400148C
:1007C6000013001300130012001200120011001192
:1007D600001000100010000F000F000F000E000E9A
:1007E600000E000D000D000D000C000C000C000B9F
:1007F600000B000B000A000A0009000900090008A6
:1008060000080008000700070007000600060005AC
:1008160000050005000400040003000300030002B5
:10082600000200010001000100000000FFFFFFFFC1
:10083600FFFFFFFEFFFEFFFDFFFDFFFCFFFCFFFBD2
:10084600FFFBFFFAFFFAFFF9FFF9FFF8FFF8FFF7E2
:10085600FFF7FFF6FFF6FFF5FFF5FFF4FFF3FFF3F3
:10086600FFF2FFF2FFF1FFF0FFF0FFEFFFEEFFED0B
:10087600FFEDFFECFFEBFFEAFFE9FFE8FFE7FFE62E
:10088600FFE5FFE4FFE3FFE2FFE0FFDFFFDDFFDC64
:10089600FFDAFFD8FFD5FFD2FFCEFFC9FFC101693E
:100EB1000223000102270000022500000242000077
:100EC100024000000244000002350000013F000220
:100ED10029AA5505460000000000054B000000004E
:080EE1000005370000000000CD
:101D6C00E4FF121BE4BF01180524E52470020523CF
:101D7C00D39402E5239400401675230075240122A8
:101D8C007F01121BE4EF640160057F02121BE42249
:100C2400121AC5783C7C007D007E007F03120116F9
:100C3400120003782B7C007D007E007F0A120116CF
:100C4400E5322543F543E5313542F5421200037898
:100C54002B7C007D007E007F0A120116E530AE2F4A
:100C64007802CEC313CE13D8F92545F545EE3544A5
:100C7400F5440536E53670020535642C7004E53517
:100C840064017057E535C313FAE53613FB2543FFBA
:100C9400E5423AFEAC35AD3612019D8E258F26E530
:100CA400452BFFE5443AFEAC35AD3612019D8E402E
:100CB4008F41E54125E0FFE54033FE74A62FF58220
:100CC40074063EF583E493F540740193F541E4F52D
:100CD40035F536F542F543F544F545E5246401451B
:100CE400237038E53C75F00A84FFE53C75F00A840E
:100CF400ADF0E53D75F00A84F55DE53D75F00A84D7
:100D040085F05E755F0AE53E75F00A84F560E53EA0
:100D140075F00A8485F0617B0A805EE524640245EF
:100D2400237059AE25AF26FC7D6412019DAA07C02D
:100D340002AE25AF267C007D0A12019D7C007D0A4F
:100D440012019DAA05AE40AF417C007D0A12019DAF
:100D54008F60AE25AF267C007D0A12019DAB057520
:100D64005D0A755E0A755F0AAE40AF417C007D0A7C
:0D0D740012019D8D61AD02D007121E8E226E
:101CA1007F05121B5AEF6401602D7F02121B5AEF50
:101CB100640160237F03121B5AEF640160197F01E5
:101CC100121B5AEF6401600F7F04121B5AEF64016B
:081CD1006005E4FF121B5A221A
:01000A0022D3
:0D002E007B007A0079467D057C00021E46AD
:061FEA00AF3F121FF622BA
:1014B400121EAE121ECC121EE97F98121CD9121FE6
:1014C4002E121E6E7D07E4FF121FC8755D0A755E3D
:1014D4000A755F0A75600A75610A7B0A7D0A7F0ACC
:1014E400121E8EE4FF121FF67F607E097D007C00D1
:1014F400121951755E017F007EC27D017C001213BA
:10150400FF755F007560007561297562007563027F
:101514007B007A0079377D057C00121D3B7BFF7AC6
:101524001F79EA7F0912185C7BFF7A1D796C7F04AE
:1015340012185C7BFF7A0C7924E4FF12185C7BFFA1
:101544007A1C79A17F0712185C7BFF7A00792E7FC1
:0C1554000212185C121FFC121C6380FBCA
:061F0400C296C295D296C0
:101F0A00E4FEC295EF1392CCEFC313FFD2950EBE37
:021F1A0008F0CD
:011F1C0022A2
:10000E00E4FEC295EFC313FF30CC03430780D295B5
:04001E000EBE08EE1C
:0100220022BB
:0D1F8500121F04AF05121F0AC296D295224A
:0A1F9E00121F0412000EC296D29525
:011FA8002216
:101AC5007F81121F9EEF5470C4540F75F00AA4FE57
:101AD500EF540F2EF55C7F83121F9EEF5470C45494
:101AE5000F75F00AA4FEEF540F2EF55B7F85121FCC
:101AF5009EEF5470C4540F75F00AA4FEEF540F2ED8
:0D1B0500F55A7F87121F9E7B007A00795AE7
:011B120022B0
:101EAE00E4FD7F8E121F857F81121F9EEF547FF5FA
:0E1EBE001DFD7F80121F857D807F8E021F8597
:091FBF008B88898C88898F888940
:100EE90052007A8686008686008686008686008677
:090EF900860086860041006F09A5
:03002B00021FF0C1
:061FF00053BCEFD20F32DA
:020A78001571F6
:100A7A00200F03020C21C20F90006EE0B40900405F
:100A8A0003020C03900A95F8282873020ADC020A6A
:100A9A00B0020AC2020AEE020AB0020AC2020B0538
:100AAA00020AB0020AC2AFBDEFFEADBE7C00E42D61
:100ABA00FFEC3E900070803CAFBDEFFEADBE7C0007
:100ACA00E42DFFEC3E900072F0A3EFF0751E0102D8
:100ADA000C09AFBDEFFEADBE7C00E42DFFEC3E90ED
:100AEA0000748010AFBDEFFEADBE7C00E42DFFECBC
:100AFA003E900076F0A3EFF0020C09AFBDEFFEAD19
:100B0A00BE7C00E42DFFEC3E900078F0A3EFF0905D
:100B1A000078E0FEA3E07807CEC313CE13D8F9A875
:100B2A0071F6C394065013A871E675F003A4247AEB
:100B3A00F582E43400F583E014F090006FE014F0DD
:100B4A006003020C097409F0A871E4F6A871E6FFC3
:100B5A00C394064003020C09EF75F003A4247AF546
:100B6A0082E43400F583E0C39480502AE6FF75F0EE
:100B7A0003A4247BF582E43400F583E0D394804017
:100B8A0040EF75F003A4247CF582E43400F5837405
:100B9A0001F0F51F802BA871E6FF75F003A4247BF2
:100BAA00F582E43400F583E0C394805014EF75F0C5
:100BBA0003A4247CF582E43400F5837402F0751FE3
:100BCA0001A871E6FF75F003A4247AF582E43400E3
:100BDA00F583E0FEEF75F003A4247BF582E434008C
:100BEA00F583EEF0E675F003A4247AF582E4340086
:100BFA00F5837486F006020B5690006E74FFF0902F
:100C0A00006EE0D39407400374FFF090006EE00496
:070C1A00F0901FBF93F5BC31
:030C210005712238
:021F5B001571FE
:091F5D00A871A61FE4F51FE6FFC0
:031F6600057122E0
:021F69001571F0
:091F6B00A871A61EE4F51EE6FFB4
:031F7400057122D2
:101CD9008F9D75BC88439720D2AD90004574FFF065
:101CE900A3740AF0A37478F0A374FFF0A3741FF02F
:101CF900A3745BF0A374FFF0A3741FF0A37469F0DD
:011D090022B7
:070003007B017A00797022F5
:101B5A00C3EF64809480403BD3EF64809485503314
:101B6A00EFFD3395E0FC90007C75F003ED12037EE7
:101B7A00EC75F003A42583F583E0FE90007C75F0F4
:101B8A0003ED12037EEC75F003A42583F583E4F0DC
:051B9A00AF06227F03ED
:011B9F002223
:041DF60015711571DD
:101DFA00121FD1A871A60608A607A871E6FE08E672
:0F1E0A00FF4E600BEF24FFFFEE34FFFE121FDAD6
:051E19000571057122B6
:101E6E0053B1EF43B21012003EE4F5D975DA49D200
:101E7E00DE90003F74FFF0A3741DF0A374F6F02201
:0818D9008E608F618C628D634B
:1018E100121FD1EF4E7066AF63AE62121FDAC3E50D
:1018F10061940AE5609400404BE47B18FAF9F89092
:1019010006861203621202A9C006C007AE60AF616B
:10191100AB07AA06E4F9F8D007D0061202A9AB0773
:10192100AA06AFF9EFFEADE97C00E42DFFEC3ECF56
:101931002BCF3AAD07FCAF03AE02121F1DD2D84325
:0F194100DA01800612003E53DAFE7F02227F0396
:011950002274
:0C1F9200121FD1EF4E7002FF227F0122CF
:10131600E4F5809000D1E0FFB40800505F90132AF6
:10132600F828287302134202134802134E0213547C
:1013360002135A02136402136E021378C2A3C2A2E6
:101346008016C2A3C2A2801AC2A3C2A2801EC2A3D2
:10135600C2A28022C2A3D2A2C2A1C2A08020C2A3DE
:10136600D2A2C2A1D2A08016C2A3D2A2D2A1C2A0EA
:10137600800CC2A3D2A2D2A1D2A08002D2A3C3EF74
:101386006480948850299000D1E0FF3395E0FE7484
:10139600C82FF58274003EF583E0FF3395E0FE74B6
:1013A6008A2FF58274063EF583E493F580801E90BD
:1013B60000D1E0FFB408133395E0FE74C82FF58220
:1013C60074003EF583E0F5808003E4F5809000C765
:1013D600E0FF9000D1E004FEF0D3EF6480F8EE6405
:1013E60080984014E0D36480948850047408F022F6
:0913F6009000C6E09000D1F02245
:101EE900E4F5937594FF5395F043960F90002A7487
:0B1EF900FFF0A37413F0A37416F02296
:091FC8009000C6EFF0A3EDF02239
:101E8E009000C8EFF0A3EDF0A3EBF0A3E55DF0A397
:101E9E00E55EF0A3E55FF0A3E560F0A3E561F02257
:061FF6009000D0EFF02284
:100F02000170004900D39494009494009494004199
:030F120000D21EEC
:02110600157161
:1011080020B2069000D3E014F020B3069000D6E099
:1011180014F02097069000D9E014F09000D2E01463
:10112800F06003021226741EF0A871E4F6A871E6B6
:10113800FFC3648094834003021226EF3395E0FED8
:101148009000D375F003EF12037EEE75F003A4252B
:1011580083F583E0C3948050399000D475F003EF91
:1011680012037EEE75F003A42583F583E0D3948003
:10117800405AE6FF3395E0FE9000D575F003EF1274
:10118800037EEE75F003A42583F5837401F0F570F2
:10119800803AA871E6FF3395E0FE9000D475F0031D
:1011A800EF12037EEE75F003A42583F583E0C39464
:1011B8008050199000D575F003EF12037EEE75F09C
:1011C80003A42583F5837402F0757001A871E6FF06
:1011D800FD3395E0FC9000D375F003ED12037EEC2F
:1011E80075F003A42583F583E0FE9000D475F00321
:1011F800ED12037EEC75F003A42583F583EEF0EF82
:101208003395E0FE9000D375F003EF12037EEE7580
:0E121800F003A42583F5837494F006021135CB
:031226000571222D
:021F77001571E2
:091F7900A871A670E4F570E6FF02
:031F8200057122C4
:101ECC0090003074FFF0A3741FF0A37477F09000AF
:0D1EDC002D74FFF0A37411F0A37406F02222
:101BE400EF600764016003BF0233EFFD3395E0FC4F
:101BF4009000D575F003ED12037EEC75F003A42577
:101C040083F583E0FE9000D575F003ED12037EECBE
:0F1C140075F003A42583F583E4F0AF06227F0368
:011C2300229E
:100F15004100000A4100290A41006D0A040E000043
:100F250000000114004600670000FFFF8FFFC10DA0
:100F3500C105C108C101C10E60240005FF0029FFDC
:100F45000029FF0029FF0029FF0029FF0029FF00D4
:100F550029FF0029FF0029FF0029FF0029FF00299B
:100F65006036002AFF0029FF0029FF0026FF00291F
:100F7500FF0026FF0029FF0026FF0029FF0029FFAB
:100F85000029FF0026FF0026FF0026FF0026FF00A0
:0A0F950029FF0029FF0029FF0029B1
:0100290022B4
:030026007F002236
:101B1300438E805389F07BE07A2879017800900620
:101B230086120362121BA0EFF404F58A7BE07A2885
:101B330079017800900686120362121BA0C3E49F0A
:101B4300FFE49EFE74019DFDE49CFC780812034EA5
:071B53008F8CD28CD2A92275
:03000B00021A7363
:041A7300C0E0C0D03F
:101A7700D5080A75084C300D020514D20DA2037261
:101A8700045036150AE50A7030850C0AD207300A69
:101A970017E50D6007150D438F01801D538FFEC29B
:101AA700B5D51615C20A8011050BE50BD394064070
:091AB70008C203E5136002D20627
:051AC000D0D0D0E0329F
:101A2000300E47C20E900686120362781012034EE3
:101A30008E6C8F6D900003E0FEA3E0FFE4FCFD7B65
:101A400019FAF9F812021EC006C007AE6CAF6DABF2
:101A500007AA06E4F9F8D007D006121BA0780312F3
:101A6000034E900065EEF0A3EFF0900065E0FEA35A
:021A7000E0FF95
:011A72002251
:091FD100900067E0FEA3E0FF228E
:091FDA00900067EEF0A3EFF02285
:101F1D0090006BEEF0A3EFF0900069ECF0A3EDF004
:011F2D002291
:03003E00C2B42227
:03003B0002160AA0
:10160A00C0E0C083C082C0D075D000C004C005C08D
:03161A0006C00700
:10161D0030DF04C2DF807D30DA04C2DA807630D963
:10162D003DC2D9AFFBEFFEADEB7C00E42DFFEC3EF0
:10163D0020000E900001F0A3EFF075DB11D20080B9
:10164D0053FE900001E0FCA3E0FDC3EF9DFFEE9C77
:10165D00A3F0A3EFF075DB00C200D20E803630D8B8
:10166D0033C2D8900067E07002A3E06022B2B4905C
:10167D000069E0FEA3E0F5EAEEF5FAA3E0FEA3E0D3
:10168D00FF90006AE02FF0900069E03EF08005C207
:04169D00B453DAFE6A
:1016A100D007D006D005D004D0D0D082D083D0E0EE
:0116B1003206
:061FFC00121B13D2AF22FC
:1017D1003004047F0180027F00200A047E01800220
:1017E1007E00EE5F6074E515C395095068300236DE
:1017F100750D01E515131313541FAB17AA18A91979
:10180100F58275830012013CFFE515540704FEEFD4
:10181100A806088002C333D8FC30D70575160380AB
:101821002F751601802AAB17AA18A91975F002E5C0
:1018310015A4F58285F08312013CF50DE51575F0CF
:1018410002A429F9EA35F0FA90000112013CF516DB
:0A1851000515D20A22C204438F10CD
:01185B00226A
:10122900900000E014F0701F740AF0D205900029B4
:10123900E014F07012740AF0D20890006DE014F016
:101249007005740AF0D20190002AA3E0FAA3E0F92C
:1012590012038A90002DA3E0FAA3E0F912038A9001
:101269000039A3E0FAA3E0F912038A900045A3E04C
:10127900FAA3E0F912038A900054A3E0FAA3E0F973
:1012890012038A90005DA3E0FAA3E0F912038A90A1
:10129900004BA3E0FAA3E0F912038AEF600C900077
:1012A9001DA3E0FAA3E0F912038A90004EA3E0FA25
:1012B900A3E0F912038AEF600E900020A3E0FAA3DD
:1012C900E0F912038AD20BE512D394004016D51225
:1012D9003030090C900023A3E0FAA3E0F912038A45
:1012E900D20C801D900051A3E0FAA3E0F912038A01
:1012F900EF600E900023A3E0FAA3E0F912038AD26B
:0D1309000C900005A3E0FAA3E0F902038AAE
:1016B20090003FA3E0FAA3E0F912038A900042A34C
:1016C200E0FAA3E0F912038A900033A3E0FAA3E060
:1016D200F912038A900008A3E0FAA3E0F912038A40
:1016E200900030A3E0FAA3E0F912038AEF600C90B5
:1016F2000011A3E0FAA3E0F912038A900036A3E0F6
:10170200FAA3E0F912038AEF600C900017A3E0FA43
:10171200A3E0F912038A900048A3E0FAA3E0F912C9
:10172200038AEF600C90001AA3E0FAA3E0F9120317
:101732008A30060EC206900026A3E0FAA3E0F91250
:03174200038A22F5
:101C240090000BA3E0FAA3E0F912038A90003CA30E
:101C3400E0FAA3E0F912038AEF600C900014A3E029
:101C4400FAA3E0F912038A900057A3E0FAA3E0F99B
:0F1C540012038A90005AA3E0FAA3E0F902038A70
:101DCB00AF11AE10AD0FAC0E90006012037290000D
:101DDB0064E514F0E4F511F510F50FF50EF514901C
:0B1DEB00000EA3E0FAA3E0F902038A57
:101C6300300705C2071217D1300D05C20D12122914
:101C7300300505C2051216B2300805C208121C242D
:101C8300300105C201121DCBE5112401F511E43524
:0E1C930010F510E4350FF50FE4350EF50E22B6
:10185C008B5A8A5B895CEFB40C00507090186FF84F
:10186C0028287302189302189802189D0218A202D5
:10187C0018A70218AC0218B10218B60218BB02184D
:10188C00C00218C50218CA90000580359000088067
:10189C003090000B802B90000E8026900011802140
:1018AC00900017801C900014801790001A801290E2
:1018BC00001D800D90002080089000238003900074
:0D18CC0026E55AF0A3E55BF0A3E55CF022F1
:071FE3007B017A0079602206
:100FE00000C400DC00F701060126014A01720188F5
:100FF00001B801EE020B024B029302E403100370EE
:1010000003DC04160497052605C800DC00F701156B
:101010000126014A0172019F01B801EE022A024B2A
:10102000029302E4033F037003DC04550497052692
:1010300005C8067D00F701150137014A0172019FBD
:1010400001D201EE022A026E029302E4033F03A4DE
:1010500003DC045504DD057505C8067D0749010656
:101060000126014A015D018801B801EE020B024B25
:10107000029302BA0310037003DC041604970526DA
:101080000575062006E007B80126014A01720188AD
:1010900001B801EE022A024B029302E4031003702E
:1010A00003DC04550497052605C8062006E007B8AA
:1010B00008AA014A0172019F01B801EE022A026EDC
:1010C000029302E4033F037003DC045504DD0526AC
:1010D00005C8067D06E007B808AA09B9015D0188C0
:1010E00001B801D2020B024B029302BA0310037043
:1010F00003A40416049705260575062006E0074993
:06110000082D092D0A4D27
:100F9F004D00B90300000000000000000000000039
:061560008F5A8D5B8B5CCD
:10156600121F92EF60037F0122E55CD394004006D0
:10157600E55C94114028E55CD394174006E55C943D
:1015860021401BE55CD394274006E55C9431400E70
:10159600E55CD394375007E55AC394F950037F03AB
:1015A60022E55C603DC4540F75F007A4FDACF0E580
:1015B6005A75F015A42DFFE5F03CFEE55C54077C5A
:1015C600002FFFEC3EFEEF25E0FFEE33FE74F62F14
:1015D600F58274E63EF583E493F55E740193F55F58
:1015E6008005E4F55EF55FAF5D7E007C017D7712D8
:1015F600018BAD5B1C12019DAD07AC06AF5FAE5E05
:031606001218D9DE
:0116090022BE
:04039000157115715D
:10039400121F92EF70047F0180027F009000B9E089
:1003A400FEB402047D0180027D00ED5F600302065D
:1003B40081EEB4030AE49000B7F0A3F00206819042
:1003C40000BAE0FFB4F3047E0180027E00EFB4F1D2
:1003D400047F0180027F00EF4E603E9000BCE0FE8F
:1003E40075F06484FFEE75F00A8475F00A84ADF04C
:1003F400E075F00A84ABF0755D0A9000BBE0240759
:10040400F55E9000B6E0FEC4540F240AF55F7560F3
:100414000AEE5407F561121E8E9000BAE0FFB4F3A1
:10042400047E0180027E00EFB4F2047F0180027F2B
:1004340000EF4E70030204DA9000BCE0FD7C007E05
:10044400177F7012019DA871A607E6F975F002A442
:10045400FFC39000C5E09F9000C4E095F05070E0A9
:10046400FEA3E0FF7C007D0B12018BE9FBFD120172
:100474009DA87108A6079000C4E475F00112020853
:10048400FED3E5F09BEE94004018A87108E624F929
:10049400FFE47EF0A807088005CEC313CE13D8F975
:1004A400801FA87108E6FF740F7E00A80708800566
:1004B400C333CE33CED8F97804CEA2E713CE13D803
:1004C400F8A87108F6A87108E6FF121FF68007E481
:1004D4009000C4F0A3F09000C0E0FEA3E0FFC3903E
:1004E40000C3E09F9000C2E09E400302067B121FFF
:1004F40092EF60030206819000BDE0FBA3E0FAA343
:10050400E0F99000C2E0FEA3E0F5828E8312013C84
:10051400FFD394375003020616EF241024FC5079BD
:10052400604524FE70030205C11470030205D7243C
:100534000260030206059000BDE0FBA3E0FAA3E01D
:10054400F99000C2E475F0011201F285F082F5839E
:1005540012013C9000BBF09000C3E004F07098904E
:1005640000C2E004F080909000BDE0FBA3E0FAA399
:10057400E0F99000C2E475F0011201F285F082F511
:100584008312013C9000BCF09000C3E004F0706E54
:100594009000C2E004F00204FB9000BDE0FBA3E085
:1005A400FAA3E0F99000C2E475F00112020885F0A4
:1005B40082F58312013C9000BAF00204FB9000C261
:1005C400E475F0011201F2AFF09000B7F0A3EFF080
:1005D4000204FB9000B7E0FEA3E0FF4E601290001F
:1005E400C2EEF0A3EFF0E49000B7F0A3F00204FB36
:1005F4009000C3E004F070069000C2E004F002042E
:10060400FB9000C3E004F070069000C2E004F00226
:1006140004FB9000C0E0FEA3E0FFC39000C3E09F92
:100624009000C2E09E50569000BDE0FBA3E0FAA308
:10063400E0F99000C2E475F00112020885F082F539
:100644008312013C9000B6F09000BBE0FFA3E0FDF4
:10065400A3E0FBA3E0FAA3E0F99000C2E475F00183
:1006640012020885F082F58312013CF55D9000B614
:0D067400E0FB12156080069000B97403F0E1
:05068100057105712266
:0F1F2E0090004274FFF0A37403F0A37490F022AC
:1019C8009000B9E0B4030DE49000C2F0A3F0A3F0D6
:1019D800A3F0C210EF60049000BCF0ED600490002A
:1019E800BBF0E94A60047F0180027F00E56A45692F
:1019F80060047E0180027E00EE5F60139000BDEB04
:101A0800F0A3EAF0A3E9F0A3E569F0A3E56AF0E53D
:081A18006B60049000BAF0229B
:101E1E00BF02047E0180027E00BF01047D018002AC
:101E2E007D00ED4EFEBF03047D0180027D00ED4E70
:081E3E0060059000B9EFF022ED
:062002009000B9E0FF228E
:100FAF0055008C0000000000000000000000000051
:080FBF00000001000000000029
:030043000208A60A
:1008A600C0E0C0F0C083C082C0D075D000C000C018
:1008B60001C002C003C004C005C006C007E59A30E7
:1008C600E142539AFD900091E0FEA3E0FFC3900041
:1008D60090E09F90008FE09E501F90008CE0FBA35D
:1008E600E0FAA3E0F9A3E475F00112020885F082AC
:1008F600F58312013CF59B800B900093E4F0E56FC5
:100906006002C2B7E59A20E003020A5D539AFE3000
:100916000C0BC20C900099E4F0A3F0D209E56F64C9
:100926000260030209B7900097E0FEA3E0FFA3E090
:10093600FCA3E0FDC39FEC9E5071900094E0FBA3E6
:10094600E0FAA3E0F98D828C83E59B1201699000A1
:100956009FE0FEA3E0FFC3ED9FEC9E504090009702
:10096600E0FCA3E0FDEF9DEE9C503290009CE0FB86
:10097600A3E0FAA3E0F9900099E0FEA3E0FFF58278
:100986008E8312013CFD900094E0FBA3E0FAA3E005
:10099600F98F828E8312013C6D6002C20990009A23
:1009A600E004F07006900099E004F0856E12020AE9
:1009B6005D900097E0FEA3E0FFA3E0FCA3E0FDC38B
:1009C6009FEC9E5077900094E0FBA3E0FAA3E0F939
:1009D6008D828C83E59B12016990009FE0FEA3E067
:1009E600FFC3ED9FEC9E5046900097E0FCA3E0FD10
:1009F600EF9DEE9C503890009CE0FBA3E0FAA3E04C
:100A0600F9900099E0FEA3E0FFF5828E8312013C87
:100A1600FD900094E0FBA3E0FAA3E0F98F828E83B9
:100A260012013C6D600890009974FFF0A3F09000ED
:100A36009AE004F07006900099E004F0900097E0C8
:100A4600FEA3E0FFC390009AE09F900099E09E40CD
:100A56000690009B7401F0D007D006D005D004D0D4
:100A660003D002D001D000D0D0D082D083D0F0D035
:020A7600E0326C
:021F3D0015711C
:0A1F3F0090009BE0A871F6FFE4F0AB
:031F4900057122FD
:01002A0022B3
:1013FF008F5D8E5C8D5B8C5A855E6FE56F700280A2
:10140F000343BA01E56F701790005D74FFF0A3748A
:10141F0000F0A3742AF0E4F5DBD290D2918020C2C1
:10142F00B7AB5DAA5CA95BA85AE47F407E9CFDFC2C
:10143F001202A98F6EE56E7003756E01856E1275BF
:10144F009A10E47B04FAF9F89006861203621202EE
:10145F00A9AB5DAA5CA95BA85A1202A9EFF404F527
:10146F00D7E47B04FAF9F89006861203621202A9F8
:10147F00AB5DAA5CA95BA85A1202A9C3E49FFFE463
:10148F009EFE74019DFDE49CFC780812033B8FD6F1
:10149F00438E1443AF0190005174FFF0A3741FF0FB
:0514AF00A3743DF022D2
:101D0A00900094EBF0A3EAF0A3E9F0A3ECF0A3EDC2
:101D1A00F090009FE558F0A3E559F090009CE55536
:101D2A00F0A3E556F0A3E557F0D20CE490009BF03F
:011D3A002286
:101D9C00900093E0702690008CEBF0A3EAF0A3E99E
:101DAC00F0E4A3F0A3F0A3ECF0A3EDF0A37401F026
:0F1DBC00E56F6002D2B7439A027F02227F0322B3
:0B1FA900900093E07002FF227F0122F5
:100FC7005500A10000000000000000000000000024
:080FD700000001000000000011
:03002300020D814A
:100D8100C0E0C0F0C083C082C0D075D000C000C038
:100D910001C002C003C004C005C006C00730993BB2
:100DA100C2999000A6E0FEA3E0FFC39000A5E09FDA
:100DB1009000A4E09E501F9000A1E0FBA3E0FAA3E5
:100DC100E0F9A3E475F00112020885F082F58312BF
:100DD100013CF59980059000A8E4F0209803020EEB
:100DE10096C298300B09C20B9000AEE4F0A3F090CC
:100DF10000ACE0FEA3E0FFA3E0FCA3E0FDC39FEC99
:100E01009E50779000A9E0FBA3E0FAA3E0F98D8260
:100E11008C83E5991201699000B4E0FEA3E0FFC361
:100E2100ED9FEC9E50469000ACE0FCA3E0FDEF9DF1
:100E3100EE9C50389000B1E0FBA3E0FAA3E0F990FA
:100E410000AEE0FEA3E0FFF5828E8312013CFD902F
:100E510000A9E0FBA3E0FAA3E0F98F828E831201DF
:100E61003C6D60089000AE74FFF0A3F09000AFE01D
:100E710004F070069000AEE004F09000ACE0FEA338
:100E8100E0FFC39000AFE09F9000AEE09E4006906F
:100E910000B07401F0D007D006D005D004D003D043
:100EA10002D001D000D0D0D082D083D0F0D0E032B7
:021F4C0015710D
:0A1F4E009000B0E0A871F6FFE4F087
:031F5800057122EE
:101951008F5D8E5C8D5B8C5A759850438E40538E93
:10196100FE53890FE47B04FAF9F8900686120362AC
:101971001202A9AB5DAA5CA95BA85A1202A9EFF4F5
:1019810004F58BE47B04FAF9F890068612036212DF
:1019910002A9AB5DAA5CA95BA85A1202A9C3E49F84
:1019A100FFE49EFE74019DFDE49CFC780812033B5C
:1019B1008F8DC2ABD28ED2AC90004E74FFF0A37467
:0719C1001FF0A3744CF0229B
:101D3B009000A9EBF0A3EAF0A3E9F0A3ECF0A3ED7C
:101D4B00F09000B4E562F0A3E563F09000B1E55FBD
:101D5B00F0A3E560F0A3E561F0D20BE49000B0F0E6
:011D6B002255
:101E46009000A8E0701F9000A1EBF0A3EAF0A3E9D0
:101E5600F0E4A3F0A3F0A3ECF0A3EDF0A37401F07B
:081E6600D2997F02227F0322C2
:0B1FB4009000A8E07002FF227F0122D5
:101751000214B4E493A3F8E493A34003F68001F2E6
:1017610008DFF48029E493A3F85407240CC8C33399
:10177100C4540F4420C8834004F456800146F6DF68
:10178100E4800B0102040810204080900EB1E47E39
:10179100019360BCA3FF543F30E509541FFEE4935D
:1017A100A360010ECF54C025E060A840B8E493A324
:1017B100FAE493A3F8E493A3C8C582C8CAC583CA4F
:1017C100F0A3C8C582C8CAC583CADFE9DEE780BE07
:010FDF000011
:10004600E709F608DFFA8046E709F208DFFA803E9C
:1000560088828C83E709F0A3DFFA8032E309F60889
:10006600DFFA8078E309F208DFFA807088828C83F1
:10007600E309F0A3DFFA806489828A83E0A3F608A5
:10008600DFFA805889828A83E0A3F208DFFA804C7F
:1000960080D280FA80C680D4806980F28033801056
:1000A60080A680EA809A80A880DA80E280CA8033BF
:1000B60089828A83ECFAE493A3C8C582C8CCC58337
:1000C600CCF0A3C8C582C8CCC583CCDFE9DEE78007
:1000D6000D89828A83E493A3F608DFF9ECFAA9F086
:1000E600EDFB2289828A83ECFAE0A3C8C582C8CCDC
:1000F600C583CCF0A3C8C582C8CCC583CCDFEADEF5
:10010600E880DB89828A83E493A3F208DFF980CC56
:1001160088F0EF60010E4E60C388F0ED2402B4044F
:100126000050B9F582EB2402B4040050AF232345F6
:0601360082239000967385
:10013C00BB010CE58229F582E5833AF583E0225078
:10014C0006E92582F8E622BBFE06E92582F8E222C2
:0D015C00E58229F582E5833AF583E49322DC
:10016900F8BB010DE58229F582E5833AF583E8F0CC
:10017900225006E92582C8F622BBFE05E92582C878
:02018900F22260
:10018B00EF8DF0A4A8F0CF8CF0A428CE8DF0A42E88
:02019B00FE2242
:10019D00BC000BBE0029EF8DF084FFADF022E4CC46
:1001AD00F875F008EF2FFFEE33FEEC33FCEE9DEC0F
:1001BD00984005FCEE9DFE0FD5F0E9E4CEFD22ED55
:1001CD00F8F5F0EE8420D21CFEADF075F008EF2F9F
:1001DD00FFED33FD4007985006D5F0F222C398FD90
:0501ED000FD5F0EA222D
:1001F200C5F0F8A3E028F0C5F0F8E5821582700298
:060202001583E038F02234
:10020800A3F8E0C5F025F0F0E582158270021583A9
:06021800E0C838F0E82206
:10021E00E88FF0A4CC8BF0A42CFCE98EF0A42CFC7F
:10022E008AF0EDA42CFCEA8EF0A4CDA8F08BF0A4FD
:10023E002DCC3825F0FDE98FF0A42CCD35F0FCEB5C
:10024E008EF0A4FEA9F0EB8FF0A4CFC5F02ECD3921
:0F025E00FEE43CFCEAA42DCE35F0FDE43CFC228E
:10026D0075F008758200EF2FFFEE33FECD33CDCC48
:10027D0033CCC58233C5829BED9AEC99E5829840CB
:10028D000CF582EE9BFEED9AFDEC99FC0FD5F0D6A8
:10029D00E4CEFBE4CDFAE4CCF9A88222B800C1B9D2
:1002AD000059BA002DEC8BF084CFCECDFCE5F0CB10
:1002BD00F97818EF2FFFEE33FEED33FDEC33FCEB49
:1002CD0033FB10D703994004EB99FB0FD8E5E4F904
:1002DD00FA227818EF2FFFEE33FEED33FDEC33FCF1
:1002ED00C933C910D7059BE99A4007EC9BFCE99AE5
:1002FD00F90FD8E0E4C9FAE4CCFB2275F010EF2F2A
:10030D00FFEE33FEED33FDCC33CCC833C810D70729
:10031D009BEC9AE899400AED9BFDEC9AFCE899F864
:0E032D000FD5F0DAE4CDFBE4CCFAE4C8F922F7
:101BA000C2D5E830E70FB2D5E4C39BFBE49AFAE470
:101BB00099F9E498F8EC30E717B2D5121BD6120267
:101BC000A9E4C39BFBE49AFAE499F9E498F880034A
:101BD0001202A930D50DE4C39FFFE49EFEE49DFDF3
:041BE000E49CFC2263
:10033B00E8600FECC313FCED13FDEE13FEEF13FFA0
:03034B00D8F122C4
:10034E00E86010ECA2E713FCED13FDEE13FEEF13C5
:04035E00FFD8F022B2
:10036200E493FC740193FD740293FE740393FF22E1
:0C037200ECF0A3EDF0A3EEF0A3EFF022FE
:0C037E00A42582F582E5F03583F583228A
:06038A008A838982E473FE
:00000001FF
